{
  "contractName": "BountyContract",
  "abi": [
    {
      "constant": true,
      "inputs": [],
      "name": "imp",
      "outputs": [
        {
          "name": "",
          "type": "address"
        }
      ],
      "payable": false,
      "stateMutability": "view",
      "type": "function",
      "signature": "0xba0f7a89"
    },
    {
      "anonymous": false,
      "inputs": [
        {
          "indexed": true,
          "name": "_by",
          "type": "address"
        },
        {
          "indexed": true,
          "name": "_bounty",
          "type": "address"
        },
        {
          "indexed": false,
          "name": "_timestamp",
          "type": "uint256"
        }
      ],
      "name": "logStartWork",
      "type": "event",
      "signature": "0x3797e305fb2396b2be951805fd9de81fae3c1a99cd9b5b59d4fdcab91261e491"
    },
    {
      "anonymous": false,
      "inputs": [
        {
          "indexed": true,
          "name": "_by",
          "type": "address"
        },
        {
          "indexed": true,
          "name": "_bounty",
          "type": "address"
        },
        {
          "indexed": false,
          "name": "_amount",
          "type": "uint256"
        },
        {
          "indexed": false,
          "name": "_timestamp",
          "type": "uint256"
        }
      ],
      "name": "logContribute",
      "type": "event",
      "signature": "0x2e6f5fc445943ecdf4a55f7400b44a2bc6d5e93a1b93f9a4f430fe6c72cf44cf"
    },
    {
      "anonymous": false,
      "inputs": [
        {
          "indexed": true,
          "name": "_by",
          "type": "address"
        },
        {
          "indexed": true,
          "name": "_bounty",
          "type": "address"
        },
        {
          "indexed": false,
          "name": "_id",
          "type": "uint256"
        },
        {
          "indexed": false,
          "name": "_timestamp",
          "type": "uint256"
        }
      ],
      "name": "logCommit",
      "type": "event",
      "signature": "0x12f32bcde50aedeee6fbc35ab0a7be6a63f7d7309ba6feabb83460222b4c3875"
    },
    {
      "anonymous": false,
      "inputs": [
        {
          "indexed": true,
          "name": "_winner",
          "type": "address"
        },
        {
          "indexed": true,
          "name": "_bounty",
          "type": "address"
        },
        {
          "indexed": false,
          "name": "_id",
          "type": "uint256"
        },
        {
          "indexed": false,
          "name": "_amount",
          "type": "uint256"
        },
        {
          "indexed": false,
          "name": "_timestamp",
          "type": "uint256"
        }
      ],
      "name": "logAccepted",
      "type": "event",
      "signature": "0xe03099729af51ab04f2ddfd124305b9cca0bf57e7dc1985ae3aff3cd8c8be46c"
    },
    {
      "anonymous": false,
      "inputs": [
        {
          "indexed": true,
          "name": "_by",
          "type": "address"
        },
        {
          "indexed": true,
          "name": "_bounty",
          "type": "address"
        },
        {
          "indexed": false,
          "name": "_timestamp",
          "type": "uint256"
        }
      ],
      "name": "logCancelled",
      "type": "event",
      "signature": "0x8aaf9083d42b82ced2b49c561b01f168e703e3f6780613d9a783ac80be2099ba"
    },
    {
      "constant": false,
      "inputs": [
        {
          "name": "_reference",
          "type": "bytes32"
        },
        {
          "name": "_issuer",
          "type": "address"
        },
        {
          "name": "_deadline",
          "type": "uint256"
        },
        {
          "name": "_reward",
          "type": "uint256"
        },
        {
          "name": "_token",
          "type": "address"
        }
      ],
      "name": "createBounty",
      "outputs": [],
      "payable": false,
      "stateMutability": "nonpayable",
      "type": "function",
      "signature": "0xdcdedb1e"
    },
    {
      "constant": true,
      "inputs": [],
      "name": "getBounty",
      "outputs": [
        {
          "name": "",
          "type": "bytes32"
        },
        {
          "name": "",
          "type": "address"
        },
        {
          "name": "",
          "type": "uint256"
        },
        {
          "name": "",
          "type": "uint256"
        },
        {
          "name": "",
          "type": "uint256"
        },
        {
          "name": "",
          "type": "uint8"
        },
        {
          "name": "",
          "type": "address"
        }
      ],
      "payable": false,
      "stateMutability": "view",
      "type": "function",
      "signature": "0xf49bff7b"
    },
    {
      "constant": false,
      "inputs": [],
      "name": "startWork",
      "outputs": [],
      "payable": false,
      "stateMutability": "nonpayable",
      "type": "function",
      "signature": "0x01034979"
    },
    {
      "constant": true,
      "inputs": [],
      "name": "getCommits",
      "outputs": [
        {
          "name": "",
          "type": "uint256"
        }
      ],
      "payable": false,
      "stateMutability": "view",
      "type": "function",
      "signature": "0x2f1f7520"
    },
    {
      "constant": true,
      "inputs": [],
      "name": "getContributions",
      "outputs": [
        {
          "name": "",
          "type": "uint256"
        }
      ],
      "payable": false,
      "stateMutability": "view",
      "type": "function",
      "signature": "0xdda0a81a"
    },
    {
      "constant": false,
      "inputs": [],
      "name": "cancelBounty",
      "outputs": [],
      "payable": false,
      "stateMutability": "nonpayable",
      "type": "function",
      "signature": "0xa913eb08"
    },
    {
      "constant": false,
      "inputs": [
        {
          "name": "_reference",
          "type": "bytes32"
        }
      ],
      "name": "submitCommit",
      "outputs": [],
      "payable": false,
      "stateMutability": "nonpayable",
      "type": "function",
      "signature": "0x62995898"
    },
    {
      "constant": true,
      "inputs": [
        {
          "name": "_id",
          "type": "uint256"
        }
      ],
      "name": "getCommit",
      "outputs": [
        {
          "name": "",
          "type": "bytes32"
        },
        {
          "name": "",
          "type": "address"
        },
        {
          "name": "",
          "type": "bool"
        },
        {
          "name": "",
          "type": "uint256"
        }
      ],
      "payable": false,
      "stateMutability": "view",
      "type": "function",
      "signature": "0xfcdbb8af"
    },
    {
      "constant": false,
      "inputs": [
        {
          "name": "_id",
          "type": "uint256"
        }
      ],
      "name": "acceptCommit",
      "outputs": [],
      "payable": false,
      "stateMutability": "nonpayable",
      "type": "function",
      "signature": "0x774d8e16"
    },
    {
      "constant": false,
      "inputs": [
        {
          "name": "_amount",
          "type": "uint256"
        }
      ],
      "name": "contribute",
      "outputs": [],
      "payable": false,
      "stateMutability": "nonpayable",
      "type": "function",
      "signature": "0xc1cbbca7"
    },
    {
      "constant": false,
      "inputs": [
        {
          "name": "_id",
          "type": "uint256"
        },
        {
          "name": "_amount",
          "type": "uint256"
        }
      ],
      "name": "refundContribution",
      "outputs": [],
      "payable": false,
      "stateMutability": "nonpayable",
      "type": "function",
      "signature": "0x73e282a5"
    },
    {
      "constant": true,
      "inputs": [
        {
          "name": "_id",
          "type": "uint256"
        }
      ],
      "name": "getContribution",
      "outputs": [
        {
          "name": "",
          "type": "address"
        },
        {
          "name": "",
          "type": "address"
        },
        {
          "name": "",
          "type": "uint256"
        },
        {
          "name": "",
          "type": "uint256"
        }
      ],
      "payable": false,
      "stateMutability": "view",
      "type": "function",
      "signature": "0xcef42254"
    }
  ],
  "bytecode": "0x608060405234801561001057600080fd5b506116d9806100206000396000f3006080604052600436106100c5576000357c0100000000000000000000000000000000000000000000000000000000900463ffffffff16806301034979146100ca5780632f1f7520146100e1578063629958981461010c57806373e282a51461013d578063774d8e1614610174578063a913eb08146101a1578063ba0f7a89146101b8578063c1cbbca71461020f578063cef422541461023c578063dcdedb1e146102ea578063dda0a81a1461036f578063f49bff7b1461039a578063fcdbb8af1461045d575b600080fd5b3480156100d657600080fd5b506100df6104eb565b005b3480156100ed57600080fd5b506100f6610586565b6040518082815260200191505060405180910390f35b34801561011857600080fd5b5061013b6004803603810190808035600019169060200190929190505050610593565b005b34801561014957600080fd5b5061017260048036038101908080359060200190929190803590602001909291905050506107cd565b005b34801561018057600080fd5b5061019f60048036038101908080359060200190929190505050610a16565b005b3480156101ad57600080fd5b506101b6610d0a565b005b3480156101c457600080fd5b506101cd610f66565b604051808273ffffffffffffffffffffffffffffffffffffffff1673ffffffffffffffffffffffffffffffffffffffff16815260200191505060405180910390f35b34801561021b57600080fd5b5061023a60048036038101908080359060200190929190505050610f8b565b005b34801561024857600080fd5b5061026760048036038101908080359060200190929190505050611310565b604051808573ffffffffffffffffffffffffffffffffffffffff1673ffffffffffffffffffffffffffffffffffffffff1681526020018473ffffffffffffffffffffffffffffffffffffffff1673ffffffffffffffffffffffffffffffffffffffff16815260200183815260200182815260200194505050505060405180910390f35b3480156102f657600080fd5b5061036d6004803603810190808035600019169060200190929190803573ffffffffffffffffffffffffffffffffffffffff1690602001909291908035906020019092919080359060200190929190803573ffffffffffffffffffffffffffffffffffffffff1690602001909291905050506113e9565b005b34801561037b57600080fd5b506103846114bd565b6040518082815260200191505060405180910390f35b3480156103a657600080fd5b506103af6114ca565b6040518088600019166000191681526020018773ffffffffffffffffffffffffffffffffffffffff1673ffffffffffffffffffffffffffffffffffffffff16815260200186815260200185815260200184815260200183600281111561041157fe5b60ff1681526020018273ffffffffffffffffffffffffffffffffffffffff1673ffffffffffffffffffffffffffffffffffffffff16815260200197505050505050505060405180910390f35b34801561046957600080fd5b506104886004803603810190808035906020019092919050505061154e565b6040518085600019166000191681526020018473ffffffffffffffffffffffffffffffffffffffff1673ffffffffffffffffffffffffffffffffffffffff1681526020018315151515815260200182815260200194505050505060405180910390f35b600060028111156104f857fe5b600660009054906101000a900460ff16600281111561051357fe5b14151561051f57600080fd5b3073ffffffffffffffffffffffffffffffffffffffff163373ffffffffffffffffffffffffffffffffffffffff167f3797e305fb2396b2be951805fd9de81fae3c1a99cd9b5b59d4fdcab91261e491426040518082815260200191505060405180910390a3565b6000600780549050905090565b61059b611614565b60003373ffffffffffffffffffffffffffffffffffffffff16600260009054906101000a900473ffffffffffffffffffffffffffffffffffffffff1673ffffffffffffffffffffffffffffffffffffffff16141515156105fa57600080fd5b6000600281111561060757fe5b600660009054906101000a900460ff16600281111561062257fe5b14151561062e57600080fd5b4260045411151561063e57600080fd5b828260000190600019169081600019168152505033826020019073ffffffffffffffffffffffffffffffffffffffff16908173ffffffffffffffffffffffffffffffffffffffff16815250506000826040019015159081151581525050428260600181815250506001600783908060018154018082558091505090600182039060005260206000209060030201600090919290919091506000820151816000019060001916905560208201518160010160006101000a81548173ffffffffffffffffffffffffffffffffffffffff021916908373ffffffffffffffffffffffffffffffffffffffff16021790555060408201518160010160146101000a81548160ff0219169083151502179055506060820151816002015550500390503073ffffffffffffffffffffffffffffffffffffffff163373ffffffffffffffffffffffffffffffffffffffff167f12f32bcde50aedeee6fbc35ab0a7be6a63f7d7309ba6feabb83460222b4c38758342604051808381526020018281526020019250505060405180910390a3505050565b600160028111156107da57fe5b600660009054906101000a900460ff1660028111156107f557fe5b1415151561080257600080fd5b3373ffffffffffffffffffffffffffffffffffffffff1660088381548110151561082857fe5b906000526020600020906004020160000160009054906101000a900473ffffffffffffffffffffffffffffffffffffffff1673ffffffffffffffffffffffffffffffffffffffff1614151561087c57600080fd5b8060088381548110151561088c57fe5b906000526020600020906004020160020154101515156108ab57600080fd5b806008838154811015156108bb57fe5b90600052602060002090600402016002016000828254039250508190555080600a600082825403925050819055506008828154811015156108f857fe5b906000526020600020906004020160010160009054906101000a900473ffffffffffffffffffffffffffffffffffffffff1673ffffffffffffffffffffffffffffffffffffffff1663a9059cbb33836040518363ffffffff167c0100000000000000000000000000000000000000000000000000000000028152600401808373ffffffffffffffffffffffffffffffffffffffff1673ffffffffffffffffffffffffffffffffffffffff16815260200182815260200192505050602060405180830381600087803b1580156109cc57600080fd5b505af11580156109e0573d6000803e3d6000fd5b505050506040513d60208110156109f657600080fd5b81019080805190602001909291905050501515610a1257600080fd5b5050565b3373ffffffffffffffffffffffffffffffffffffffff16600260009054906101000a900473ffffffffffffffffffffffffffffffffffffffff1673ffffffffffffffffffffffffffffffffffffffff16141515610a7257600080fd5b60006002811115610a7f57fe5b600660009054906101000a900460ff166002811115610a9a57fe5b141515610aa657600080fd5b6001600660006101000a81548160ff02191690836002811115610ac557fe5b02179055506001600782815481101515610adb57fe5b906000526020600020906003020160010160146101000a81548160ff021916908315150217905550600960009054906101000a900473ffffffffffffffffffffffffffffffffffffffff1673ffffffffffffffffffffffffffffffffffffffff1663a9059cbb600783815481101515610b5057fe5b906000526020600020906003020160010160009054906101000a900473ffffffffffffffffffffffffffffffffffffffff16600a546040518363ffffffff167c0100000000000000000000000000000000000000000000000000000000028152600401808373ffffffffffffffffffffffffffffffffffffffff1673ffffffffffffffffffffffffffffffffffffffff16815260200182815260200192505050602060405180830381600087803b158015610c0a57600080fd5b505af1158015610c1e573d6000803e3d6000fd5b505050506040513d6020811015610c3457600080fd5b81019080805190602001909291905050501515610c5057600080fd5b3073ffffffffffffffffffffffffffffffffffffffff16600782815481101515610c7657fe5b906000526020600020906003020160010160009054906101000a900473ffffffffffffffffffffffffffffffffffffffff1673ffffffffffffffffffffffffffffffffffffffff167fe03099729af51ab04f2ddfd124305b9cca0bf57e7dc1985ae3aff3cd8c8be46c83600a544260405180848152602001838152602001828152602001935050505060405180910390a350565b3373ffffffffffffffffffffffffffffffffffffffff16600260009054906101000a900473ffffffffffffffffffffffffffffffffffffffff1673ffffffffffffffffffffffffffffffffffffffff16141515610d6657600080fd5b60006002811115610d7357fe5b600660009054906101000a900460ff166002811115610d8e57fe5b141515610d9a57600080fd5b600554600a54141515610dac57600080fd5b6002600660006101000a81548160ff02191690836002811115610dcb57fe5b0217905550600960009054906101000a900473ffffffffffffffffffffffffffffffffffffffff1673ffffffffffffffffffffffffffffffffffffffff1663a9059cbb600260009054906101000a900473ffffffffffffffffffffffffffffffffffffffff166005546040518363ffffffff167c0100000000000000000000000000000000000000000000000000000000028152600401808373ffffffffffffffffffffffffffffffffffffffff1673ffffffffffffffffffffffffffffffffffffffff16815260200182815260200192505050602060405180830381600087803b158015610eb957600080fd5b505af1158015610ecd573d6000803e3d6000fd5b505050506040513d6020811015610ee357600080fd5b81019080805190602001909291905050501515610eff57600080fd5b3073ffffffffffffffffffffffffffffffffffffffff163373ffffffffffffffffffffffffffffffffffffffff167f8aaf9083d42b82ced2b49c561b01f168e703e3f6780613d9a783ac80be2099ba426040518082815260200191505060405180910390a3565b6000809054906101000a900473ffffffffffffffffffffffffffffffffffffffff1681565b610f93611658565b42600454111515610fa357600080fd5b60006002811115610fb057fe5b600660009054906101000a900460ff166002811115610fcb57fe5b141515610fd757600080fd5b33816000019073ffffffffffffffffffffffffffffffffffffffff16908173ffffffffffffffffffffffffffffffffffffffff1681525050600960009054906101000a900473ffffffffffffffffffffffffffffffffffffffff16816020019073ffffffffffffffffffffffffffffffffffffffff16908173ffffffffffffffffffffffffffffffffffffffff168152505081816040018181525050428160600181815250506008819080600181540180825580915050906001820390600052602060002090600402016000909192909190915060008201518160000160006101000a81548173ffffffffffffffffffffffffffffffffffffffff021916908373ffffffffffffffffffffffffffffffffffffffff16021790555060208201518160010160006101000a81548173ffffffffffffffffffffffffffffffffffffffff021916908373ffffffffffffffffffffffffffffffffffffffff160217905550604082015181600201556060820151816003015550505081600a60008282540192505081905550600960009054906101000a900473ffffffffffffffffffffffffffffffffffffffff1673ffffffffffffffffffffffffffffffffffffffff166323b872dd3330856040518463ffffffff167c0100000000000000000000000000000000000000000000000000000000028152600401808473ffffffffffffffffffffffffffffffffffffffff1673ffffffffffffffffffffffffffffffffffffffff1681526020018373ffffffffffffffffffffffffffffffffffffffff1673ffffffffffffffffffffffffffffffffffffffff1681526020018281526020019350505050602060405180830381600087803b15801561125957600080fd5b505af115801561126d573d6000803e3d6000fd5b505050506040513d602081101561128357600080fd5b8101908080519060200190929190505050151561129f57600080fd5b3073ffffffffffffffffffffffffffffffffffffffff163373ffffffffffffffffffffffffffffffffffffffff167f2e6f5fc445943ecdf4a55f7400b44a2bc6d5e93a1b93f9a4f430fe6c72cf44cf8442604051808381526020018281526020019250505060405180910390a35050565b60008060008060088581548110151561132557fe5b906000526020600020906004020160000160009054906101000a900473ffffffffffffffffffffffffffffffffffffffff1660088681548110151561136657fe5b906000526020600020906004020160010160009054906101000a900473ffffffffffffffffffffffffffffffffffffffff166008878154811015156113a757fe5b9060005260206000209060040201600201546008888154811015156113c857fe5b90600052602060002090600402016003015493509350935093509193509193565b846001816000191690555083600260006101000a81548173ffffffffffffffffffffffffffffffffffffffff021916908373ffffffffffffffffffffffffffffffffffffffff1602179055504260038190555082600481905550816005819055506000600660006101000a81548160ff0219169083600281111561146957fe5b021790555080600960006101000a81548173ffffffffffffffffffffffffffffffffffffffff021916908373ffffffffffffffffffffffffffffffffffffffff16021790555081600a819055505050505050565b6000600880549050905090565b6000806000806000806000600154600260009054906101000a900473ffffffffffffffffffffffffffffffffffffffff16600354600454600a54600660009054906101000a900460ff16600960009054906101000a900473ffffffffffffffffffffffffffffffffffffffff16965096509650965096509650965090919293949596565b60008060008060078581548110151561156357fe5b90600052602060002090600302016000015460078681548110151561158457fe5b906000526020600020906003020160010160009054906101000a900473ffffffffffffffffffffffffffffffffffffffff166007878154811015156115c557fe5b906000526020600020906003020160010160149054906101000a900460ff166007888154811015156115f357fe5b90600052602060002090600302016002015493509350935093509193509193565b60806040519081016040528060008019168152602001600073ffffffffffffffffffffffffffffffffffffffff168152602001600015158152602001600081525090565b608060405190810160405280600073ffffffffffffffffffffffffffffffffffffffff168152602001600073ffffffffffffffffffffffffffffffffffffffff168152602001600081526020016000815250905600a165627a7a72305820ad4c4bff0e67b110c41e2b1396819a9ff6b844b58d63bd0d8c12ff60c1e037eb0029",
  "source": "pragma solidity ^0.4.23;\r\n\r\nimport {ERC20} from './Token.sol';\r\n\r\ncontract BountyContract {\r\n  //address public owner;\r\n  address public imp; //match proxy storage\r\n  bytes32 reference;\r\n  address issuer;\r\n  uint timestamp;\r\n  uint deadline;\r\n  uint reward;\r\n  statusOptions status;\r\n  Commit[] commits;\r\n  Contribution[] contributions;\r\n  address token;\r\n  uint totalContributions;\r\n\r\n  event logStartWork(address indexed _by, address indexed _bounty, uint _timestamp);\r\n  event logContribute(address indexed _by, address indexed _bounty, uint _amount, uint _timestamp);\r\n  event logCommit(address indexed _by, address indexed _bounty, uint _id, uint _timestamp);\r\n  event logAccepted(address indexed _winner, address indexed _bounty, uint _id, uint _amount, uint _timestamp);\r\n  event logCancelled(address indexed _by, address indexed _bounty, uint _timestamp);\r\n\r\n  enum statusOptions {ACTIVE, COMPLETED, ABANDONED}\r\n\r\n  struct Commit {\r\n    bytes32 reference;\r\n    address author;\r\n    bool accepted;\r\n    uint timestamp;\r\n  }\r\n\r\n  struct Contribution {\r\n    address contributer;\r\n    address token;\r\n    uint amount;\r\n    uint timestamp;\r\n  }\r\n\r\n  function createBounty(\r\n    bytes32 _reference,\r\n    address _issuer,\r\n    uint _deadline,\r\n    uint _reward,\r\n    address _token) external {\r\n      reference = _reference;\r\n      issuer = _issuer;\r\n      timestamp = now;\r\n      deadline = _deadline;\r\n      reward = _reward;\r\n      status = statusOptions.ACTIVE;\r\n      token = _token;\r\n      totalContributions = _reward;\r\n    }\r\n\r\n  function getBounty() external view\r\n    returns (\r\n      bytes32,\r\n      address,\r\n      uint,\r\n      uint,\r\n      uint,\r\n      statusOptions,\r\n      address\r\n      ) {\r\n          return (\r\n          reference,\r\n          issuer,\r\n          timestamp,\r\n          deadline,\r\n          totalContributions,\r\n          status,\r\n          token\r\n          );\r\n    }\r\n\r\n  function startWork() external {\r\n    require(status == statusOptions.ACTIVE);\r\n    emit logStartWork(msg.sender, address(this), now);\r\n  }\r\n\r\n  function getCommits() external view returns (uint) {\r\n    return commits.length;\r\n  }\r\n\r\n  function getContributions() external view returns (uint) {\r\n    return contributions.length;\r\n  }\r\n\r\n  function cancelBounty() external {\r\n    require(issuer == msg.sender);\r\n    require(status == statusOptions.ACTIVE);\r\n    require(totalContributions == reward);\r\n    status = statusOptions.ABANDONED;\r\n    if(!ERC20(token).transfer(issuer, reward)) revert();\r\n    emit logCancelled(msg.sender, address(this), now);\r\n  }\r\n\r\n  function submitCommit(bytes32 _reference) external {\r\n    require(issuer != msg.sender); //DISABLE FOR TESTING PURPOSES ONLY\r\n    require(status == statusOptions.ACTIVE);\r\n    require(deadline > now);\r\n    Commit memory newCommit;\r\n    newCommit.reference = _reference;\r\n    newCommit.author = msg.sender;\r\n    newCommit.accepted = false;\r\n    newCommit.timestamp = now;\r\n    uint _id = commits.push(newCommit) -1;\r\n    emit logCommit(msg.sender, address(this), _id, now);\r\n  }\r\n\r\n  function getCommit(uint _id)\r\n    external\r\n    view\r\n    returns (\r\n      bytes32,\r\n      address,\r\n      bool,\r\n      uint\r\n    ) {\r\n    return (commits[_id].reference, commits[_id].author, commits[_id].accepted, commits[_id].timestamp);\r\n  }\r\n\r\n  function acceptCommit(uint _id) external {\r\n    require(issuer == msg.sender);\r\n    require(status == statusOptions.ACTIVE);\r\n    status = statusOptions.COMPLETED;\r\n    commits[_id].accepted = true;\r\n    if(!ERC20(token).transfer(commits[_id].author,  totalContributions)) revert();\r\n    emit logAccepted(commits[_id].author, address(this), _id,  totalContributions, now);\r\n  }\r\n\r\n  function contribute(uint _amount) external {\r\n    require(deadline > now);\r\n     //For now accept only contributions in the token that the bounty is in\r\n    require(status == statusOptions.ACTIVE);\r\n    Contribution memory newContribution;\r\n    newContribution.contributer = msg.sender;\r\n    newContribution.token = token;\r\n    newContribution.amount = _amount;\r\n    newContribution.timestamp = now;\r\n    contributions.push(newContribution);\r\n    totalContributions += _amount; //SAFEMATH THIS\r\n    if (!ERC20(token).transferFrom(msg.sender, address(this), _amount)) revert();\r\n    emit logContribute(msg.sender, address(this), _amount, now);\r\n  }\r\n\r\n  function refundContribution(uint _id, uint _amount) external {\r\n    require(status != statusOptions.COMPLETED);\r\n    require(contributions[_id].contributer == msg.sender);\r\n    require(contributions[_id].amount >= _amount);\r\n    contributions[_id].amount -= _amount; //SAFEMATH THIS\r\n    totalContributions -= _amount; //SAFEMATH this\r\n    if(!ERC20(contributions[_id].token).transfer(msg.sender, _amount)) revert();  }\r\n\r\n  function getContribution(\r\n    uint _id)\r\n    external\r\n    view\r\n    returns (\r\n      address,\r\n      address,\r\n      uint,\r\n      uint\r\n    ) {\r\n        return  (\r\n          contributions[_id].contributer,\r\n          contributions[_id].token,\r\n          contributions[_id].amount,\r\n          contributions[_id].timestamp\r\n          );    }\r\n\r\n}\r\n",
  "sourcePath": "C:\\Users\\N.vergauwen\\desktop\\knuckles.eth\\contracts\\contracts\\BountyContract.sol",
  "compiler": {
    "name": "solc",
    "version": "0.4.25+commit.59dbf8f1.Emscripten.clang"
  },
  "schemaVersion": "3.0.1",
  "updatedAt": "2019-02-12T12:37:56.040Z",
  "devdoc": {
    "methods": {}
  },
  "userdoc": {
    "methods": {}
  }
}