{
  "contractName": "BountyProxy",
  "abi": [
    {
      "constant": true,
      "inputs": [],
      "name": "impl",
      "outputs": [
        {
          "name": "",
          "type": "address"
        }
      ],
      "payable": false,
      "stateMutability": "view",
      "type": "function"
    },
    {
      "inputs": [
        {
          "name": "_impl",
          "type": "address"
        }
      ],
      "payable": false,
      "stateMutability": "nonpayable",
      "type": "constructor"
    },
    {
      "payable": false,
      "stateMutability": "nonpayable",
      "type": "fallback"
    }
  ],
  "bytecode": "0x608060405234801561001057600080fd5b5060405160208061023783398101806040528101908080519060200190929190505050806000806101000a81548173ffffffffffffffffffffffffffffffffffffffff021916908373ffffffffffffffffffffffffffffffffffffffff160217905550506101b4806100836000396000f300608060405260043610610041576000357c0100000000000000000000000000000000000000000000000000000000900463ffffffff1680638abf60771461010c575b34801561004d57600080fd5b506000807c0100000000000000000000000000000000000000000000000000000000026000357fffffffff00000000000000000000000000000000000000000000000000000000167bffffffffffffffffffffffffffffffffffffffffffffffffffffffff1916141515156100c157600080fd5b6000809054906101000a900473ffffffffffffffffffffffffffffffffffffffff16905060405136600082376000813683855af43d806000843e8160008114610108578184f35b8184fd5b34801561011857600080fd5b50610121610163565b604051808273ffffffffffffffffffffffffffffffffffffffff1673ffffffffffffffffffffffffffffffffffffffff16815260200191505060405180910390f35b6000809054906101000a900473ffffffffffffffffffffffffffffffffffffffff16815600a165627a7a72305820529113c6f8353f798cd19d4c5757ae5f6336314457cb144414d57e5f6976d8a90029",
  "source": "pragma solidity ^0.4.23;\r\n\r\ncontract BountyProxy {\r\n  //address public owner;\r\n  address public impl;\r\n  constructor (address _impl) public {\r\n      impl = _impl;\r\n      //owner == msg.sender;\r\n  }\r\n  /**\r\n  * @dev Fallback function allowing to perform a delegatecall to the given implementation.\r\n  * This function will return whatever the implementation call returns\r\n  */\r\n  function () public {\r\n    require(msg.sig != 0x0);\r\n    address _impl = impl;\r\n    assembly {\r\n      let ptr := mload(0x40)\r\n      calldatacopy(ptr, 0, calldatasize)\r\n      let result := delegatecall(gas, _impl, ptr, calldatasize, ptr, 0)\r\n      let size := returndatasize\r\n      returndatacopy(ptr, 0, size)\r\n\r\n      switch result\r\n      case 0 { revert(ptr, size) }\r\n      default { return(ptr, size) }\r\n    }\r\n  }\r\n\r\n  /*\r\n  function upgrade(address _impl) {\r\n    require(msg.sender == owner);\r\n    impl = _impl;\r\n  }\r\n  */\r\n}\r\n\r\n\r\n\r\n\r\n//For the lunch session:\r\n// Calling functions on a contract is abstract for\r\n// Sending messages to an address on the blockchain\r\n// Of type contract (there is regular wallet addresses too)\r\n// This address contains the bytecode of the contract\r\n// In reality messages are sent to the contract address with a calldata\r\n// Here msg.sig represents the first 4 bytes of the calldata\r\n// Which represents the function signatures (bytes4(keccak256(myFunction())))\r\n// When msg is broadcast to peers they see that the receiver is a contract address\r\n// They will execute the bytecode associated with that receiver contract address\r\n// Along with the calldata in the message\r\n// The transaction is accepted when all the peers have the same output\r\n",
  "sourcePath": "C:\\Users\\N.vergauwen\\Desktop\\knuckles.eth\\contracts\\contracts\\BountyProxy.sol",
  "compiler": {
    "name": "solc",
    "version": "0.4.25+commit.59dbf8f1.Emscripten.clang"
  },
  "schemaVersion": "2.0.2",
  "updatedAt": "2019-01-21T10:13:15.507Z"
}