{
  "contractName": "BountyFactory",
  "abi": [
    {
      "inputs": [
        {
          "name": "_organisation",
          "type": "address"
        },
        {
          "name": "_name",
          "type": "bytes32"
        },
        {
          "name": "_profile",
          "type": "bytes32"
        }
      ],
      "payable": false,
      "stateMutability": "nonpayable",
      "type": "constructor",
      "signature": "constructor"
    },
    {
      "anonymous": false,
      "inputs": [
        {
          "indexed": true,
          "name": "issuer",
          "type": "address"
        },
        {
          "indexed": false,
          "name": "bounty",
          "type": "address"
        },
        {
          "indexed": false,
          "name": "_reference",
          "type": "bytes32"
        }
      ],
      "name": "logBountyCreated",
      "type": "event",
      "signature": "0x74e05d574e575e834dbb35d5a93e8bcc3e1461f09d87a44be91b9978575af081"
    },
    {
      "constant": false,
      "inputs": [
        {
          "name": "_reference",
          "type": "bytes32"
        },
        {
          "name": "_deadline",
          "type": "uint256"
        },
        {
          "name": "_reward",
          "type": "uint256"
        }
      ],
      "name": "createBounty",
      "outputs": [],
      "payable": false,
      "stateMutability": "nonpayable",
      "type": "function",
      "signature": "0x85d2e82a"
    },
    {
      "constant": false,
      "inputs": [
        {
          "name": "_reference",
          "type": "bytes32"
        },
        {
          "name": "_deadline",
          "type": "uint256"
        },
        {
          "name": "_reward",
          "type": "uint256"
        }
      ],
      "name": "createMintableBounty",
      "outputs": [],
      "payable": false,
      "stateMutability": "nonpayable",
      "type": "function",
      "signature": "0x03ada831"
    },
    {
      "constant": false,
      "inputs": [
        {
          "name": "_bounty",
          "type": "address"
        },
        {
          "name": "_id",
          "type": "uint256"
        }
      ],
      "name": "acceptMintable",
      "outputs": [],
      "payable": false,
      "stateMutability": "nonpayable",
      "type": "function",
      "signature": "0xf7377ee1"
    },
    {
      "constant": false,
      "inputs": [
        {
          "name": "_bounty",
          "type": "address"
        }
      ],
      "name": "cancelMintable",
      "outputs": [],
      "payable": false,
      "stateMutability": "nonpayable",
      "type": "function",
      "signature": "0x0dedd3b2"
    }
  ],
  "bytecode": "0x608060405234801561001057600080fd5b506040516060806115c38339810180604052810190808051906020019092919080519060200190929190805190602001909291905050506000836000806101000a81548173ffffffffffffffffffffffffffffffffffffffff021916908373ffffffffffffffffffffffffffffffffffffffff1602179055508373ffffffffffffffffffffffffffffffffffffffff1663ec56a3736040518163ffffffff167c010000000000000000000000000000000000000000000000000000000002815260040180807f75736572730000000000000000000000000000000000000000000000000000008152506020019050602060405180830381600087803b15801561011857600080fd5b505af115801561012c573d6000803e3d6000fd5b505050506040513d602081101561014257600080fd5b810190808051906020019092919050505090508073ffffffffffffffffffffffffffffffffffffffff16632f92673284846040518363ffffffff167c0100000000000000000000000000000000000000000000000000000000028152600401808360001916600019168152602001826000191660001916815260200192505050600060405180830381600087803b1580156101dc57600080fd5b505af11580156101f0573d6000803e3d6000fd5b50505050505050506113bc806102076000396000f300608060405260043610610062576000357c0100000000000000000000000000000000000000000000000000000000900463ffffffff16806303ada831146100675780630dedd3b2146100ac57806385d2e82a146100ef578063f7377ee114610134575b600080fd5b34801561007357600080fd5b506100aa60048036038101908080356000191690602001909291908035906020019092919080359060200190929190505050610181565b005b3480156100b857600080fd5b506100ed600480360381019080803573ffffffffffffffffffffffffffffffffffffffff169060200190929190505050610759565b005b3480156100fb57600080fd5b50610132600480360381019080803560001916906020019092919080359060200190929190803590602001909291905050506108da565b005b34801561014057600080fd5b5061017f600480360381019080803573ffffffffffffffffffffffffffffffffffffffff16906020019092919080359060200190929190505050610fbc565b005b6000808211151561019157600080fd5b6000809054906101000a900473ffffffffffffffffffffffffffffffffffffffff1673ffffffffffffffffffffffffffffffffffffffff166324d7806c336040518263ffffffff167c0100000000000000000000000000000000000000000000000000000000028152600401808273ffffffffffffffffffffffffffffffffffffffff1673ffffffffffffffffffffffffffffffffffffffff168152602001915050602060405180830381600087803b15801561024d57600080fd5b505af1158015610261573d6000803e3d6000fd5b505050506040513d602081101561027757600080fd5b8101908080519060200190929190505050151561029357600080fd5b6000809054906101000a900473ffffffffffffffffffffffffffffffffffffffff1673ffffffffffffffffffffffffffffffffffffffff1663ec56a3736040518163ffffffff167c010000000000000000000000000000000000000000000000000000000002815260040180807f626f756e747900000000000000000000000000000000000000000000000000008152506020019050602060405180830381600087803b15801561034357600080fd5b505af1158015610357573d6000803e3d6000fd5b505050506040513d602081101561036d57600080fd5b8101908080519060200190929190505050610386611149565b808273ffffffffffffffffffffffffffffffffffffffff1673ffffffffffffffffffffffffffffffffffffffff168152602001915050604051809103906000f0801580156103d8573d6000803e3d6000fd5b5090508073ffffffffffffffffffffffffffffffffffffffff1663dcdedb1e853086866000809054906101000a900473ffffffffffffffffffffffffffffffffffffffff1673ffffffffffffffffffffffffffffffffffffffff1663ec56a3736040518163ffffffff167c010000000000000000000000000000000000000000000000000000000002815260040180807f746f6b656e0000000000000000000000000000000000000000000000000000008152506020019050602060405180830381600087803b1580156104ab57600080fd5b505af11580156104bf573d6000803e3d6000fd5b505050506040513d60208110156104d557600080fd5b81019080805190602001909291905050506040518663ffffffff167c01000000000000000000000000000000000000000000000000000000000281526004018086600019166000191681526020018573ffffffffffffffffffffffffffffffffffffffff1673ffffffffffffffffffffffffffffffffffffffff1681526020018481526020018381526020018273ffffffffffffffffffffffffffffffffffffffff1673ffffffffffffffffffffffffffffffffffffffff16815260200195505050505050600060405180830381600087803b1580156105b457600080fd5b505af11580156105c8573d6000803e3d6000fd5b505050506000809054906101000a900473ffffffffffffffffffffffffffffffffffffffff1673ffffffffffffffffffffffffffffffffffffffff166379c6506882846040518363ffffffff167c0100000000000000000000000000000000000000000000000000000000028152600401808373ffffffffffffffffffffffffffffffffffffffff1673ffffffffffffffffffffffffffffffffffffffff16815260200182815260200192505050600060405180830381600087803b15801561069057600080fd5b505af11580156106a4573d6000803e3d6000fd5b505050506000809054906101000a900473ffffffffffffffffffffffffffffffffffffffff1673ffffffffffffffffffffffffffffffffffffffff167f74e05d574e575e834dbb35d5a93e8bcc3e1461f09d87a44be91b9978575af0818286604051808373ffffffffffffffffffffffffffffffffffffffff1673ffffffffffffffffffffffffffffffffffffffff16815260200182600019166000191681526020019250505060405180910390a250505050565b6000809054906101000a900473ffffffffffffffffffffffffffffffffffffffff1673ffffffffffffffffffffffffffffffffffffffff166324d7806c336040518263ffffffff167c0100000000000000000000000000000000000000000000000000000000028152600401808273ffffffffffffffffffffffffffffffffffffffff1673ffffffffffffffffffffffffffffffffffffffff168152602001915050602060405180830381600087803b15801561081557600080fd5b505af1158015610829573d6000803e3d6000fd5b505050506040513d602081101561083f57600080fd5b8101908080519060200190929190505050151561085b57600080fd5b8073ffffffffffffffffffffffffffffffffffffffff1663a913eb086040518163ffffffff167c0100000000000000000000000000000000000000000000000000000000028152600401600060405180830381600087803b1580156108bf57600080fd5b505af11580156108d3573d6000803e3d6000fd5b5050505050565b600080821115156108ea57600080fd5b6000809054906101000a900473ffffffffffffffffffffffffffffffffffffffff1673ffffffffffffffffffffffffffffffffffffffff1663a230c524336040518263ffffffff167c0100000000000000000000000000000000000000000000000000000000028152600401808273ffffffffffffffffffffffffffffffffffffffff1673ffffffffffffffffffffffffffffffffffffffff168152602001915050602060405180830381600087803b1580156109a657600080fd5b505af11580156109ba573d6000803e3d6000fd5b505050506040513d60208110156109d057600080fd5b810190808051906020019092919050505015156109ec57600080fd5b6000809054906101000a900473ffffffffffffffffffffffffffffffffffffffff1673ffffffffffffffffffffffffffffffffffffffff1663ec56a3736040518163ffffffff167c010000000000000000000000000000000000000000000000000000000002815260040180807f626f756e747900000000000000000000000000000000000000000000000000008152506020019050602060405180830381600087803b158015610a9c57600080fd5b505af1158015610ab0573d6000803e3d6000fd5b505050506040513d6020811015610ac657600080fd5b8101908080519060200190929190505050610adf611149565b808273ffffffffffffffffffffffffffffffffffffffff1673ffffffffffffffffffffffffffffffffffffffff168152602001915050604051809103906000f080158015610b31573d6000803e3d6000fd5b5090508073ffffffffffffffffffffffffffffffffffffffff1663dcdedb1e853386866000809054906101000a900473ffffffffffffffffffffffffffffffffffffffff1673ffffffffffffffffffffffffffffffffffffffff1663ec56a3736040518163ffffffff167c010000000000000000000000000000000000000000000000000000000002815260040180807f746f6b656e0000000000000000000000000000000000000000000000000000008152506020019050602060405180830381600087803b158015610c0457600080fd5b505af1158015610c18573d6000803e3d6000fd5b505050506040513d6020811015610c2e57600080fd5b81019080805190602001909291905050506040518663ffffffff167c01000000000000000000000000000000000000000000000000000000000281526004018086600019166000191681526020018573ffffffffffffffffffffffffffffffffffffffff1673ffffffffffffffffffffffffffffffffffffffff1681526020018481526020018381526020018273ffffffffffffffffffffffffffffffffffffffff1673ffffffffffffffffffffffffffffffffffffffff16815260200195505050505050600060405180830381600087803b158015610d0d57600080fd5b505af1158015610d21573d6000803e3d6000fd5b505050506000809054906101000a900473ffffffffffffffffffffffffffffffffffffffff1673ffffffffffffffffffffffffffffffffffffffff1663ec56a3736040518163ffffffff167c010000000000000000000000000000000000000000000000000000000002815260040180807f746f6b656e0000000000000000000000000000000000000000000000000000008152506020019050602060405180830381600087803b158015610dd557600080fd5b505af1158015610de9573d6000803e3d6000fd5b505050506040513d6020811015610dff57600080fd5b810190808051906020019092919050505073ffffffffffffffffffffffffffffffffffffffff166323b872dd3383856040518463ffffffff167c0100000000000000000000000000000000000000000000000000000000028152600401808473ffffffffffffffffffffffffffffffffffffffff1673ffffffffffffffffffffffffffffffffffffffff1681526020018373ffffffffffffffffffffffffffffffffffffffff1673ffffffffffffffffffffffffffffffffffffffff1681526020018281526020019350505050602060405180830381600087803b158015610ee657600080fd5b505af1158015610efa573d6000803e3d6000fd5b505050506040513d6020811015610f1057600080fd5b81019080805190602001909291905050501515610f2c57600080fd5b3373ffffffffffffffffffffffffffffffffffffffff167f74e05d574e575e834dbb35d5a93e8bcc3e1461f09d87a44be91b9978575af0818286604051808373ffffffffffffffffffffffffffffffffffffffff1673ffffffffffffffffffffffffffffffffffffffff16815260200182600019166000191681526020019250505060405180910390a250505050565b6000809054906101000a900473ffffffffffffffffffffffffffffffffffffffff1673ffffffffffffffffffffffffffffffffffffffff166324d7806c336040518263ffffffff167c0100000000000000000000000000000000000000000000000000000000028152600401808273ffffffffffffffffffffffffffffffffffffffff1673ffffffffffffffffffffffffffffffffffffffff168152602001915050602060405180830381600087803b15801561107857600080fd5b505af115801561108c573d6000803e3d6000fd5b505050506040513d60208110156110a257600080fd5b810190808051906020019092919050505015156110be57600080fd5b8173ffffffffffffffffffffffffffffffffffffffff1663774d8e16826040518263ffffffff167c010000000000000000000000000000000000000000000000000000000002815260040180828152602001915050600060405180830381600087803b15801561112d57600080fd5b505af1158015611141573d6000803e3d6000fd5b505050505050565b6040516102378061115a833901905600608060405234801561001057600080fd5b5060405160208061023783398101806040528101908080519060200190929190505050806000806101000a81548173ffffffffffffffffffffffffffffffffffffffff021916908373ffffffffffffffffffffffffffffffffffffffff160217905550506101b4806100836000396000f300608060405260043610610041576000357c0100000000000000000000000000000000000000000000000000000000900463ffffffff1680638abf60771461010c575b34801561004d57600080fd5b506000807c0100000000000000000000000000000000000000000000000000000000026000357fffffffff00000000000000000000000000000000000000000000000000000000167bffffffffffffffffffffffffffffffffffffffffffffffffffffffff1916141515156100c157600080fd5b6000809054906101000a900473ffffffffffffffffffffffffffffffffffffffff16905060405136600082376000813683855af43d806000843e8160008114610108578184f35b8184fd5b34801561011857600080fd5b50610121610163565b604051808273ffffffffffffffffffffffffffffffffffffffff1673ffffffffffffffffffffffffffffffffffffffff16815260200191505060405180910390f35b6000809054906101000a900473ffffffffffffffffffffffffffffffffffffffff16815600a165627a7a72305820068691aaf7cce6dfce8de8609ce094ade893fa118ad4e8a4f3a9d442ffefe5e10029a165627a7a723058201621a3e8a0aba9733b6ec76145da055a2494c54defdb397fc3e4fe3c44fc6f3f0029",
  "source": "pragma solidity ^0.4.23;\r\n\r\nimport {MintableToken} from './Token.sol';\r\nimport './UsersRegistry.sol';\r\nimport './BountyProxy.sol';\r\nimport {BountyInterface} from './BountyInterface.sol';\r\nimport {ERC20} from './Token.sol';\r\n\r\n//We need isAdmin and isMember functions\r\n// calling the mappings from other contracts will not work as there is no such function , we would have to make an interface or a seperate function that returns a boolean\r\n\r\ninterface Organisation {\r\n  function isAdmin(address _user) external view returns (bool);\r\n  function isMember(address _user) external view returns (bool);\r\n  function mintToken(address _to, uint _amount) external;\r\n  function contracts(bytes32 _name) external view returns (address);\r\n}\r\ncontract Administrators {\r\n\r\n  mapping(address => bool) public admins;\r\n\r\n  event logAdminChange(address _changedAdmin, bool _status,  address _setBy, uint _timestamp);\r\n\r\n  constructor() public {\r\n    admins[msg.sender] = true;\r\n  }\r\n\r\n  function isAdmin(address _user) public view returns (bool) {\r\n    return admins[_user];\r\n  }\r\n\r\n  function addAdmin(address _newAdmin) external {\r\n    require(isAdmin(msg.sender));\r\n    require(_newAdmin != address(0));\r\n    admins[_newAdmin] = true;\r\n    emit logAdminChange(_newAdmin, true, msg.sender, now);\r\n  }\r\n\r\n  function removeAdmin(address _remove) external {\r\n    require(isAdmin(msg.sender));\r\n    require(_remove != address(0));\r\n    delete admins[_remove];\r\n    emit logAdminChange(_remove, false, msg.sender, now);\r\n  }\r\n}\r\n\r\ncontract ContractRegistry is Administrators {\r\n\r\n  mapping(bytes32 => address) public contracts;\r\n  mapping(address => bool) public tokenAccess;\r\n\r\n  function addContract(bytes32 _name, address _destination) public {\r\n      require(isAdmin(msg.sender));\r\n      contracts[_name] = _destination;\r\n  }\r\n\r\n  function removeContract(bytes32 _name) public {\r\n      require(isAdmin(msg.sender));\r\n      delete contracts[_name];\r\n  }\r\n\r\n  function changeTokenAccess(address _contract) public {\r\n    require(isAdmin(msg.sender));\r\n    tokenAccess[_contract] = !tokenAccess[_contract];\r\n  }\r\n}\r\n\r\ncontract Membership is ContractRegistry {\r\n\r\n  event logJoin(address _user, uint _timestamp);\r\n  event logBlacklist(address _subject, address _by, uint _timestamp);\r\n  event logWhitelist(address _subject, address _by, uint _timestamp);\r\n  event logApprove(address _subject, address _by, uint _timestamp, bool _accepted);\r\n\r\n  mapping(address => bool) public pending;\r\n  mapping(address => bool) public members;\r\n  mapping(address => bool) public blacklisted;\r\n\r\n  bool public requireApproval;\r\n\r\n  function isMember(address _user) public view returns (bool) {\r\n    return members[_user];\r\n  }\r\n\r\n  function toggleApproval() external {\r\n      require(isAdmin(msg.sender));\r\n      requireApproval = !requireApproval;\r\n  }\r\n\r\n  function join() external {\r\n    require(UsersRegistry(contracts[\"users\"]).isRegistered(msg.sender));\r\n    require(!blacklisted[msg.sender]);\r\n    if (requireApproval) {\r\n     pending[msg.sender] = true;\r\n    } else {\r\n     members[msg.sender] = true;\r\n    }\r\n    emit logJoin(msg.sender, now);\r\n  }\r\n\r\n  function approve(address _user, bool _accepted) external {\r\n    require(isAdmin(msg.sender));\r\n    require(!blacklisted[msg.sender]);\r\n    if (_accepted) {\r\n      pending[_user] = false;\r\n      members[_user] = true;\r\n      emit logApprove(_user, msg.sender, now, _accepted);\r\n    } else {\r\n      pending[_user] = false;\r\n      emit logApprove(_user, msg.sender, now, _accepted);\r\n    }\r\n  }\r\n\r\n  function leave() external {\r\n    delete members[msg.sender];\r\n  }\r\n\r\n  function blacklist(address _user) external {\r\n    require(isAdmin(msg.sender));\r\n    blacklisted[_user] = true;\r\n    delete members[_user];\r\n    emit logBlacklist(_user, msg.sender, now);\r\n  }\r\n\r\n  function whitelist(address _user) external {\r\n    require(isAdmin(msg.sender));\r\n    delete blacklisted[_user];\r\n    members[_user] = true;\r\n    emit logWhitelist(_user, msg.sender, now);\r\n  }\r\n}\r\n\r\ncontract Timesheets {\r\n\r\n  address public organisation;\r\n\r\n  uint public reward;\r\n\r\n  event logTimesheetPeriod(address indexed _user, uint  indexed _periodStart, bool _completed, address _approver, uint _reward);\r\n\r\n  struct Period {\r\n    uint start;\r\n    bool completed;\r\n  }\r\n\r\n  mapping(address => Period[]) public timesheets;\r\n\r\n      constructor(address _organisation) public {\r\n        organisation =_organisation;\r\n    }\r\n\r\n  function setPeriod(address _user, uint _start, bool _completed) external {\r\n    require(Organisation(organisation).isAdmin(msg.sender));\r\n    require(_checkLatest(_start, _user));\r\n    Period memory p;\r\n    p.start = _start;\r\n    p.completed = _completed;\r\n    timesheets[_user].push(p);\r\n    if (_completed) Organisation(organisation).mintToken(_user, reward);\r\n    emit logTimesheetPeriod(_user, _start, _completed, msg.sender, reward);\r\n  }\r\n\r\n  function getLast(address _user) external view returns (uint, bool) {\r\n    if (timesheets[_user].length > 0) return (timesheets[_user][timesheets[_user].length-1].start, timesheets[_user][timesheets[_user].length-1].completed);\r\n  }\r\n\r\n  function setReward(uint _reward) external {\r\n    require(Organisation(organisation).isAdmin(msg.sender));\r\n    reward = _reward;\r\n  }\r\n\r\n  function _checkLatest(uint _start, address _user) internal view returns (bool) {\r\n    return timesheets[_user].length > 0 ? timesheets[_user][timesheets[_user].length - 1].start < _start : _start > 0;\r\n  }\r\n}\r\n\r\ncontract BountyFactory {\r\n  address organisation;\r\n\r\n  event logBountyCreated(address indexed issuer, address bounty, bytes32 _reference);\r\n\r\n      constructor(address _organisation, bytes32 _name, bytes32 _profile) public {\r\n        organisation = _organisation;\r\n        address _users = Organisation(_organisation).contracts(\"users\");\r\n        UsersRegistry(_users).register(_name, _profile);\r\n    }\r\n\r\n  function createBounty(bytes32 _reference, uint _deadline, uint _reward) external {\r\n    require(_reward > 0);\r\n     require(Organisation(organisation).isMember(msg.sender));\r\n    address _bounty = new BountyProxy(Organisation(organisation).contracts(\"bounty\"));\r\n    BountyInterface(_bounty).createBounty(_reference, msg.sender, _deadline, _reward, Organisation(organisation).contracts(\"token\"));\r\n    if(!ERC20(Organisation(organisation).contracts(\"token\")).transferFrom(msg.sender, _bounty, _reward)) revert();\r\n    emit logBountyCreated( msg.sender, address(_bounty), _reference);\r\n  }\r\n\r\n//ORGANISATION IDENTITY MUST BE BOUND TO THE BOUNTYFACTORY INSTEAD\r\n  function createMintableBounty(bytes32 _reference, uint _deadline, uint _reward) external {\r\n    require(_reward > 0);\r\n    require(Organisation(organisation).isAdmin(msg.sender));\r\n    address _bounty = address(new BountyProxy(Organisation(organisation).contracts(\"bounty\")));\r\n    BountyInterface(_bounty).createBounty(_reference, address(this), _deadline, _reward, Organisation(organisation).contracts(\"token\"));\r\n    Organisation(organisation).mintToken(_bounty, _reward);\r\n    emit logBountyCreated(organisation, address(_bounty), _reference);\r\n  }\r\n\r\n  function acceptMintable(address _bounty, uint _id) external {\r\n    require(Organisation(organisation).isAdmin(msg.sender));\r\n    BountyInterface(_bounty).acceptCommit(_id);\r\n  }\r\n\r\n  function cancelMintable(address _bounty) external {\r\n    require(Organisation(organisation).isAdmin(msg.sender));\r\n    BountyInterface(_bounty).cancelBounty();\r\n  }\r\n\r\n  /*\r\n  function upgradeMintable(address _bounty, address _implementation) external {\r\n    require(Organisation(organisation).isAdmin(msg.sender));\r\n    BountyProxy(_bounty).upgrade(_implementation);\r\n  }\r\n  */\r\n\r\n}\r\n\r\ncontract TokenFaucet {\r\n    address public organisation;\r\n\r\n    constructor(address _organisation) public {\r\n        organisation = _organisation;\r\n    }\r\n\r\n    //Lets make it a one time faucet to reduce bytecode size by not needing SafeMath for one function\r\n\r\n    uint public faucetLimit;\r\n\r\n    event logFaucet(address _user, uint _amount, uint _date);\r\n\r\n    mapping(address => bool) public received;\r\n\r\n    function setLimit(uint _limit) external {\r\n        require(Organisation(organisation).isAdmin(msg.sender));\r\n        faucetLimit =  _limit;\r\n    }\r\n\r\n    function faucet() external {\r\n        require(Organisation(organisation).isMember(msg.sender));\r\n        require(!received[msg.sender]);\r\n        received[msg.sender] = true;\r\n        Organisation(organisation).mintToken(msg.sender, faucetLimit);\r\n        emit logFaucet(msg.sender, faucetLimit, now);\r\n    }\r\n}\r\n\r\ncontract RewardStore  {\r\n\r\n    address public organisation;\r\n\r\n    constructor(address _organisation) public {\r\n        organisation = _organisation;\r\n    }\r\n\r\n    event logPurchase(bytes32 _reference, uint _price, uint _index);\r\n\r\n    struct Listing {\r\n        bytes32 reference;\r\n        uint price;\r\n        bool active;\r\n    }\r\n\r\n    Listing[] public listings;\r\n\r\n    function addListing(bytes32 _reference, uint _price) external {\r\n        require(Organisation(organisation).isAdmin(msg.sender));\r\n        Listing memory l;\r\n        l.reference = _reference;\r\n        l.price = _price;\r\n        l.active = true;\r\n        listings.push(l);\r\n    }\r\n\r\n    function updateListing(uint _index, bytes32 _reference, uint _price) external {\r\n      require(Organisation(organisation).isAdmin(msg.sender));\r\n      listings[_index].reference = _reference;\r\n      listings[_index].price = _price;\r\n    }\r\n\r\n    function changeActive(uint _index) external {\r\n      require(Organisation(organisation).isAdmin(msg.sender));\r\n      listings[_index].active = !listings[_index].active;\r\n    }\r\n\r\n    function removeListing(uint _index) external {\r\n      require(Organisation(organisation).isAdmin(msg.sender));\r\n      delete listings[_index];\r\n    }\r\n\r\n    function purchase(uint _index) external {\r\n        require(Organisation(organisation).isMember(msg.sender));\r\n        require(listings[_index].active);\r\n        if(!ERC20(Organisation(organisation).contracts(\"token\")).transferFrom(msg.sender, address(this), listings[_index].price)) revert();\r\n        MintableToken(Organisation(organisation).contracts(\"token\")).burn(listings[_index].price);\r\n        emit logPurchase(listings[_index].reference, listings[_index].price, _index);\r\n    }\r\n\r\n    function listingsAmount() external view returns (uint) {\r\n      return listings.length;\r\n    }\r\n}\r\n\r\n//Timesheets, bountyfactyory, rewards, faucet should be upgradeable (??) and modular additions\r\n// Making these upgradeable would imply a proxy setup similar to bounties\r\n// Calling all modules from the organisation contract directly is not possible\r\ncontract OrganisationContract is Membership {\r\n\r\n  event logCreateOrganisation(address _contract, address _creator, uint _timestamp);\r\n\r\n  constructor () public {\r\n    emit logCreateOrganisation(address(this), msg.sender, now);\r\n  }\r\n\r\n  function setOrganisationIdentity(bytes32 _name, bytes32 _profile) external {\r\n    require(isAdmin(msg.sender));\r\n    UsersRegistry(contracts[\"users\"]).register(_name, _profile);\r\n  }\r\n\r\n  function mintToken(address _to, uint _amount) public {\r\n    require(isAdmin(msg.sender) || tokenAccess[msg.sender]);\r\n    MintableToken(contracts[\"token\"]).mint(_to, _amount);\r\n  }\r\n}\r\n",
  "sourcePath": "C:\\Users\\N.vergauwen\\desktop\\knuckles.eth\\contracts\\contracts\\OrganisationContract.sol",
  "compiler": {
    "name": "solc",
    "version": "0.4.25+commit.59dbf8f1.Emscripten.clang"
  },
  "schemaVersion": "3.0.1",
  "updatedAt": "2019-02-12T12:37:56.068Z",
  "devdoc": {
    "methods": {}
  },
  "userdoc": {
    "methods": {}
  }
}