{
  "contractName": "ContractRegistry",
  "abi": [
    {
      "constant": false,
      "inputs": [
        {
          "name": "_remove",
          "type": "address"
        }
      ],
      "name": "removeAdmin",
      "outputs": [],
      "payable": false,
      "stateMutability": "nonpayable",
      "type": "function"
    },
    {
      "constant": true,
      "inputs": [
        {
          "name": "_user",
          "type": "address"
        }
      ],
      "name": "isAdmin",
      "outputs": [
        {
          "name": "",
          "type": "bool"
        }
      ],
      "payable": false,
      "stateMutability": "view",
      "type": "function"
    },
    {
      "constant": true,
      "inputs": [
        {
          "name": "",
          "type": "address"
        }
      ],
      "name": "admins",
      "outputs": [
        {
          "name": "",
          "type": "bool"
        }
      ],
      "payable": false,
      "stateMutability": "view",
      "type": "function"
    },
    {
      "constant": false,
      "inputs": [
        {
          "name": "_newAdmin",
          "type": "address"
        }
      ],
      "name": "addAdmin",
      "outputs": [],
      "payable": false,
      "stateMutability": "nonpayable",
      "type": "function"
    },
    {
      "constant": true,
      "inputs": [
        {
          "name": "",
          "type": "address"
        }
      ],
      "name": "tokenAccess",
      "outputs": [
        {
          "name": "",
          "type": "bool"
        }
      ],
      "payable": false,
      "stateMutability": "view",
      "type": "function"
    },
    {
      "constant": true,
      "inputs": [
        {
          "name": "",
          "type": "bytes32"
        }
      ],
      "name": "contracts",
      "outputs": [
        {
          "name": "",
          "type": "address"
        }
      ],
      "payable": false,
      "stateMutability": "view",
      "type": "function"
    },
    {
      "anonymous": false,
      "inputs": [
        {
          "indexed": false,
          "name": "_changedAdmin",
          "type": "address"
        },
        {
          "indexed": false,
          "name": "_status",
          "type": "bool"
        },
        {
          "indexed": false,
          "name": "_setBy",
          "type": "address"
        },
        {
          "indexed": false,
          "name": "_timestamp",
          "type": "uint256"
        }
      ],
      "name": "logAdminChange",
      "type": "event"
    },
    {
      "constant": false,
      "inputs": [
        {
          "name": "_name",
          "type": "bytes32"
        },
        {
          "name": "_destination",
          "type": "address"
        }
      ],
      "name": "addContract",
      "outputs": [],
      "payable": false,
      "stateMutability": "nonpayable",
      "type": "function"
    },
    {
      "constant": false,
      "inputs": [
        {
          "name": "_name",
          "type": "bytes32"
        }
      ],
      "name": "removeContract",
      "outputs": [],
      "payable": false,
      "stateMutability": "nonpayable",
      "type": "function"
    },
    {
      "constant": false,
      "inputs": [
        {
          "name": "_contract",
          "type": "address"
        }
      ],
      "name": "changeTokenAccess",
      "outputs": [],
      "payable": false,
      "stateMutability": "nonpayable",
      "type": "function"
    }
  ],
  "bytecode": "0x608060405260016000803373ffffffffffffffffffffffffffffffffffffffff1673ffffffffffffffffffffffffffffffffffffffff16815260200190815260200160002060006101000a81548160ff0219169083151502179055506108848061006a6000396000f300608060405260043610610099576000357c0100000000000000000000000000000000000000000000000000000000900463ffffffff1680631785f53c1461009e57806324d7806c146100e15780632f5fe5051461013c578063429b62e51461017f5780635188f996146101da578063704802751461022b578063787799ea1461026e578063a43e04d8146102c9578063ec56a373146102fa575b600080fd5b3480156100aa57600080fd5b506100df600480360381019080803573ffffffffffffffffffffffffffffffffffffffff16906020019092919050505061036b565b005b3480156100ed57600080fd5b50610122600480360381019080803573ffffffffffffffffffffffffffffffffffffffff1690602001909291905050506104b8565b604051808215151515815260200191505060405180910390f35b34801561014857600080fd5b5061017d600480360381019080803573ffffffffffffffffffffffffffffffffffffffff16906020019092919050505061050d565b005b34801561018b57600080fd5b506101c0600480360381019080803573ffffffffffffffffffffffffffffffffffffffff1690602001909291905050506105c8565b604051808215151515815260200191505060405180910390f35b3480156101e657600080fd5b506102296004803603810190808035600019169060200190929190803573ffffffffffffffffffffffffffffffffffffffff1690602001909291905050506105e8565b005b34801561023757600080fd5b5061026c600480360381019080803573ffffffffffffffffffffffffffffffffffffffff16906020019092919050505061065a565b005b34801561027a57600080fd5b506102af600480360381019080803573ffffffffffffffffffffffffffffffffffffffff1690602001909291905050506107b0565b604051808215151515815260200191505060405180910390f35b3480156102d557600080fd5b506102f860048036038101908080356000191690602001909291905050506107d0565b005b34801561030657600080fd5b506103296004803603810190808035600019169060200190929190505050610825565b604051808273ffffffffffffffffffffffffffffffffffffffff1673ffffffffffffffffffffffffffffffffffffffff16815260200191505060405180910390f35b610374336104b8565b151561037f57600080fd5b600073ffffffffffffffffffffffffffffffffffffffff168173ffffffffffffffffffffffffffffffffffffffff16141515156103bb57600080fd5b6000808273ffffffffffffffffffffffffffffffffffffffff1673ffffffffffffffffffffffffffffffffffffffff16815260200190815260200160002060006101000a81549060ff02191690557f5ef5c5de4de4d24d5276eec30286f36e62f45f50a1225613606cd89afcddfe128160003342604051808573ffffffffffffffffffffffffffffffffffffffff1673ffffffffffffffffffffffffffffffffffffffff168152602001841515151581526020018373ffffffffffffffffffffffffffffffffffffffff1673ffffffffffffffffffffffffffffffffffffffff16815260200182815260200194505050505060405180910390a150565b60008060008373ffffffffffffffffffffffffffffffffffffffff1673ffffffffffffffffffffffffffffffffffffffff16815260200190815260200160002060009054906101000a900460ff169050919050565b610516336104b8565b151561052157600080fd5b600260008273ffffffffffffffffffffffffffffffffffffffff1673ffffffffffffffffffffffffffffffffffffffff16815260200190815260200160002060009054906101000a900460ff1615600260008373ffffffffffffffffffffffffffffffffffffffff1673ffffffffffffffffffffffffffffffffffffffff16815260200190815260200160002060006101000a81548160ff02191690831515021790555050565b60006020528060005260406000206000915054906101000a900460ff1681565b6105f1336104b8565b15156105fc57600080fd5b8060016000846000191660001916815260200190815260200160002060006101000a81548173ffffffffffffffffffffffffffffffffffffffff021916908373ffffffffffffffffffffffffffffffffffffffff1602179055505050565b610663336104b8565b151561066e57600080fd5b600073ffffffffffffffffffffffffffffffffffffffff168173ffffffffffffffffffffffffffffffffffffffff16141515156106aa57600080fd5b60016000808373ffffffffffffffffffffffffffffffffffffffff1673ffffffffffffffffffffffffffffffffffffffff16815260200190815260200160002060006101000a81548160ff0219169083151502179055507f5ef5c5de4de4d24d5276eec30286f36e62f45f50a1225613606cd89afcddfe128160013342604051808573ffffffffffffffffffffffffffffffffffffffff1673ffffffffffffffffffffffffffffffffffffffff168152602001841515151581526020018373ffffffffffffffffffffffffffffffffffffffff1673ffffffffffffffffffffffffffffffffffffffff16815260200182815260200194505050505060405180910390a150565b60026020528060005260406000206000915054906101000a900460ff1681565b6107d9336104b8565b15156107e457600080fd5b60016000826000191660001916815260200190815260200160002060006101000a81549073ffffffffffffffffffffffffffffffffffffffff021916905550565b60016020528060005260406000206000915054906101000a900473ffffffffffffffffffffffffffffffffffffffff16815600a165627a7a723058202f4ff178f092232b69114f72b7d871316b124b15b8fb9c98bdb13eeb6499399d0029",
  "source": "pragma solidity ^0.4.23;\r\n\r\nimport {MintableToken} from './Token.sol';\r\nimport './UsersRegistry.sol';\r\nimport './BountyProxy.sol';\r\nimport {BountyInterface} from './BountyInterface.sol';\r\nimport {ERC20} from './Token.sol';\r\n\r\n//We need isAdmin and isMember functions\r\n// calling the mappings from other contracts will not work as there is no such function , we would have to make an interface or a seperate function that returns a boolean\r\n\r\ninterface Organisation {\r\n  function isAdmin(address _user) external view returns (bool);\r\n  function isMember(address _user) external view returns (bool);\r\n  function mintToken(address _to, uint _amount) external;\r\n  function contracts(bytes32 _name) external view returns (address);\r\n}\r\ncontract Administrators {\r\n\r\n  mapping(address => bool) public admins;\r\n\r\n  event logAdminChange(address _changedAdmin, bool _status,  address _setBy, uint _timestamp);\r\n\r\n  constructor() public {\r\n    admins[msg.sender] = true;\r\n  }\r\n\r\n  function isAdmin(address _user) public view returns (bool) {\r\n    return admins[_user];\r\n  }\r\n\r\n  function addAdmin(address _newAdmin) external {\r\n    require(isAdmin(msg.sender));\r\n    require(_newAdmin != address(0));\r\n    admins[_newAdmin] = true;\r\n    emit logAdminChange(_newAdmin, true, msg.sender, now);\r\n  }\r\n\r\n  function removeAdmin(address _remove) external {\r\n    require(isAdmin(msg.sender));\r\n    require(_remove != address(0));\r\n    delete admins[_remove];\r\n    emit logAdminChange(_remove, false, msg.sender, now);\r\n  }\r\n}\r\n\r\ncontract ContractRegistry is Administrators {\r\n\r\n  mapping(bytes32 => address) public contracts;\r\n  mapping(address => bool) public tokenAccess;\r\n\r\n  function addContract(bytes32 _name, address _destination) public {\r\n      require(isAdmin(msg.sender));\r\n      contracts[_name] = _destination;\r\n  }\r\n\r\n  function removeContract(bytes32 _name) public {\r\n      require(isAdmin(msg.sender));\r\n      delete contracts[_name];\r\n  }\r\n\r\n  function changeTokenAccess(address _contract) public {\r\n    require(isAdmin(msg.sender));\r\n    tokenAccess[_contract] = !tokenAccess[_contract];\r\n  }\r\n}\r\n\r\ncontract Membership is ContractRegistry {\r\n\r\n  event logJoin(address _user, uint _timestamp);\r\n  event logBlacklist(address _subject, address _by, uint _timestamp);\r\n  event logWhitelist(address _subject, address _by, uint _timestamp);\r\n  event logApprove(address _subject, address _by, uint _timestamp, bool _accepted);\r\n\r\n  mapping(address => bool) public pending;\r\n  mapping(address => bool) public members;\r\n  mapping(address => bool) public blacklisted;\r\n\r\n  bool public requireApproval;\r\n\r\n  function isMember(address _user) public view returns (bool) {\r\n    return members[_user];\r\n  }\r\n\r\n  function toggleApproval() external {\r\n      require(isAdmin(msg.sender));\r\n      requireApproval = !requireApproval;\r\n  }\r\n\r\n  function join() external {\r\n    require(UsersRegistry(contracts[\"users\"]).isRegistered(msg.sender));\r\n    require(!blacklisted[msg.sender]);\r\n    if (requireApproval) {\r\n     pending[msg.sender] = true;\r\n    } else {\r\n     members[msg.sender] = true;\r\n    }\r\n    emit logJoin(msg.sender, now);\r\n  }\r\n\r\n  function approve(address _user, bool _accepted) external {\r\n    require(isAdmin(msg.sender));\r\n    require(!blacklisted[msg.sender]);\r\n    if (_accepted) {\r\n      pending[_user] = false;\r\n      members[_user] = true;\r\n      emit logApprove(_user, msg.sender, now, _accepted);\r\n    } else {\r\n      pending[_user] = false;\r\n      emit logApprove(_user, msg.sender, now, _accepted);\r\n    }\r\n  }\r\n\r\n  function leave() external {\r\n    delete members[msg.sender];\r\n  }\r\n\r\n  function blacklist(address _user) external {\r\n    require(isAdmin(msg.sender));\r\n    blacklisted[_user] = true;\r\n    delete members[_user];\r\n    emit logBlacklist(_user, msg.sender, now);\r\n  }\r\n\r\n  function whitelist(address _user) external {\r\n    require(isAdmin(msg.sender));\r\n    delete blacklisted[_user];\r\n    members[_user] = true;\r\n    emit logWhitelist(_user, msg.sender, now);\r\n  }\r\n}\r\n\r\ncontract Timesheets {\r\n\r\n  address public organisation;\r\n\r\n  uint public reward;\r\n\r\n  event logTimesheetPeriod(address indexed _user, uint  indexed _periodStart, bool _completed, address _approver, uint _reward);\r\n\r\n  struct Period {\r\n    uint start;\r\n    bool completed;\r\n  }\r\n\r\n  mapping(address => Period[]) public timesheets;\r\n\r\n      constructor(address _organisation) public {\r\n        organisation =_organisation;\r\n    }\r\n\r\n  function setPeriod(address _user, uint _start, bool _completed) external {\r\n    require(Organisation(organisation).isAdmin(msg.sender));\r\n    require(_checkLatest(_start, _user));\r\n    Period memory p;\r\n    p.start = _start;\r\n    p.completed = _completed;\r\n    timesheets[_user].push(p);\r\n    if (_completed) Organisation(organisation).mintToken(_user, reward);\r\n    emit logTimesheetPeriod(_user, _start, _completed, msg.sender, reward);\r\n  }\r\n\r\n  function getLast(address _user) external view returns (uint, bool) {\r\n    if (timesheets[_user].length > 0) return (timesheets[_user][timesheets[_user].length-1].start, timesheets[_user][timesheets[_user].length-1].completed);\r\n  }\r\n\r\n  function setReward(uint _reward) external {\r\n    require(Organisation(organisation).isAdmin(msg.sender));\r\n    reward = _reward;\r\n  }\r\n\r\n  function _checkLatest(uint _start, address _user) internal view returns (bool) {\r\n    return timesheets[_user].length > 0 ? timesheets[_user][timesheets[_user].length - 1].start < _start : _start > 0;\r\n  }\r\n}\r\n\r\ncontract BountyFactory {\r\n  address organisation;\r\n\r\n  event logBountyCreated(address indexed issuer, address bounty, bytes32 _reference);\r\n\r\n      constructor(address _organisation, bytes32 _name, bytes32 _profile) public {\r\n        organisation = _organisation;\r\n        address _users = Organisation(_organisation).contracts(\"users\");\r\n        UsersRegistry(_users).register(_name, _profile);\r\n    }\r\n\r\n  function createBounty(bytes32 _reference, uint _deadline, uint _reward) external {\r\n    require(_reward > 0);\r\n     require(Organisation(organisation).isMember(msg.sender));\r\n    address _bounty = new BountyProxy(Organisation(organisation).contracts(\"bounty\"));\r\n    BountyInterface(_bounty).createBounty(_reference, msg.sender, _deadline, _reward, Organisation(organisation).contracts(\"token\"));\r\n    if(!ERC20(Organisation(organisation).contracts(\"token\")).transferFrom(msg.sender, _bounty, _reward)) revert();\r\n    emit logBountyCreated( msg.sender, address(_bounty), _reference);\r\n  }\r\n\r\n//ORGANISATION IDENTITY MUST BE BOUND TO THE BOUNTYFACTORY INSTEAD\r\n  function createMintableBounty(bytes32 _reference, uint _deadline, uint _reward) external {\r\n    require(_reward > 0);\r\n    require(Organisation(organisation).isAdmin(msg.sender));\r\n    address _bounty = address(new BountyProxy(Organisation(organisation).contracts(\"bounty\")));\r\n    BountyInterface(_bounty).createBounty(_reference, address(this), _deadline, _reward, Organisation(organisation).contracts(\"token\"));\r\n    Organisation(organisation).mintToken(_bounty, _reward);\r\n    emit logBountyCreated(address(this), address(_bounty), _reference);\r\n  }\r\n\r\n  function acceptMintable(address _bounty, uint _id) external {\r\n    require(Organisation(organisation).isAdmin(msg.sender));\r\n    BountyInterface(_bounty).acceptCommit(_id);\r\n  }\r\n\r\n  function cancelMintable(address _bounty) external {\r\n    require(Organisation(organisation).isAdmin(msg.sender));\r\n    BountyInterface(_bounty).cancelBounty();\r\n  }\r\n\r\n  /*\r\n  function upgradeMintable(address _bounty, address _implementation) external {\r\n    require(Organisation(organisation).isAdmin(msg.sender));\r\n    BountyProxy(_bounty).upgrade(_implementation);\r\n  }\r\n  */\r\n\r\n}\r\n\r\ncontract TokenFaucet {\r\n    address public organisation;\r\n\r\n    constructor(address _organisation) public {\r\n        organisation = _organisation;\r\n    }\r\n\r\n    //Lets make it a one time faucet to reduce bytecode size by not needing SafeMath for one function\r\n\r\n    uint public faucetLimit;\r\n\r\n    event logFaucet(address _user, uint _amount, uint _date);\r\n\r\n    mapping(address => bool) public received;\r\n\r\n    function setLimit(uint _limit) external {\r\n        require(Organisation(organisation).isAdmin(msg.sender));\r\n        faucetLimit =  _limit;\r\n    }\r\n\r\n    function faucet() external {\r\n        require(Organisation(organisation).isMember(msg.sender));\r\n        require(!received[msg.sender]);\r\n        received[msg.sender] = true;\r\n        Organisation(organisation).mintToken(msg.sender, faucetLimit);\r\n        emit logFaucet(msg.sender, faucetLimit, now);\r\n    }\r\n}\r\n\r\ncontract RewardStore  {\r\n\r\n    address public organisation;\r\n\r\n    constructor(address _organisation) public {\r\n        organisation = _organisation;\r\n    }\r\n\r\n    event logPurchase(bytes32 _reference, uint _price, uint _index);\r\n\r\n    struct Listing {\r\n        bytes32 reference;\r\n        uint price;\r\n        bool active;\r\n    }\r\n\r\n    Listing[] public listings;\r\n\r\n    function addListing(bytes32 _reference, uint _price) external {\r\n        require(Organisation(organisation).isAdmin(msg.sender));\r\n        Listing memory l;\r\n        l.reference = _reference;\r\n        l.price = _price;\r\n        l.active = true;\r\n        listings.push(l);\r\n    }\r\n\r\n    function updateListing(uint _index, bytes32 _reference, uint _price) external {\r\n      require(Organisation(organisation).isAdmin(msg.sender));\r\n      listings[_index].reference = _reference;\r\n      listings[_index].price = _price;\r\n    }\r\n\r\n    function changeActive(uint _index) external {\r\n      require(Organisation(organisation).isAdmin(msg.sender));\r\n      listings[_index].active = !listings[_index].active;\r\n    }\r\n\r\n    function removeListing(uint _index) external {\r\n      require(Organisation(organisation).isAdmin(msg.sender));\r\n      delete listings[_index];\r\n    }\r\n\r\n    function purchase(uint _index) external {\r\n        require(Organisation(organisation).isMember(msg.sender));\r\n        require(listings[_index].active);\r\n        if(!ERC20(Organisation(organisation).contracts(\"token\")).transferFrom(msg.sender, address(this), listings[_index].price)) revert();\r\n        MintableToken(Organisation(organisation).contracts(\"token\")).burn(listings[_index].price);\r\n        emit logPurchase(listings[_index].reference, listings[_index].price, _index);\r\n    }\r\n\r\n    function listingsAmount() external view returns (uint) {\r\n      return listings.length;\r\n    }\r\n}\r\n\r\n//Timesheets, bountyfactyory, rewards, faucet should be upgradeable (??) and modular additions\r\n// Making these upgradeable would imply a proxy setup similar to bounties\r\n// Calling all modules from the organisation contract directly is not possible\r\ncontract OrganisationContract is Membership {\r\n\r\n  event logCreateOrganisation(address _contract, address _creator, uint _timestamp);\r\n\r\n  constructor () public {\r\n    emit logCreateOrganisation(address(this), msg.sender, now);\r\n  }\r\n\r\n  function setOrganisationIdentity(bytes32 _name, bytes32 _profile) external {\r\n    require(isAdmin(msg.sender));\r\n    UsersRegistry(contracts[\"users\"]).register(_name, _profile);\r\n  }\r\n\r\n  function mintToken(address _to, uint _amount) public {\r\n    require(isAdmin(msg.sender) || tokenAccess[msg.sender]);\r\n    MintableToken(contracts[\"token\"]).mint(_to, _amount);\r\n  }\r\n}\r\n",
  "sourcePath": "C:\\Users\\N.vergauwen\\desktop\\knuckles.eth\\contracts\\contracts\\OrganisationContract.sol",
  "compiler": {
    "name": "solc",
    "version": "0.4.25+commit.59dbf8f1.Emscripten.clang"
  },
  "schemaVersion": "3.0.1",
  "updatedAt": "2019-02-15T15:44:11.717Z",
  "devdoc": {
    "methods": {}
  },
  "userdoc": {
    "methods": {}
  }
}