{
  "contractName": "Membership",
  "abi": [
    {
      "constant": true,
      "inputs": [
        {
          "name": "",
          "type": "address"
        }
      ],
      "name": "members",
      "outputs": [
        {
          "name": "",
          "type": "bool"
        }
      ],
      "payable": false,
      "stateMutability": "view",
      "type": "function"
    },
    {
      "constant": false,
      "inputs": [
        {
          "name": "_remove",
          "type": "address"
        }
      ],
      "name": "removeAdmin",
      "outputs": [],
      "payable": false,
      "stateMutability": "nonpayable",
      "type": "function"
    },
    {
      "constant": true,
      "inputs": [
        {
          "name": "_user",
          "type": "address"
        }
      ],
      "name": "isAdmin",
      "outputs": [
        {
          "name": "",
          "type": "bool"
        }
      ],
      "payable": false,
      "stateMutability": "view",
      "type": "function"
    },
    {
      "constant": false,
      "inputs": [
        {
          "name": "_contract",
          "type": "address"
        }
      ],
      "name": "changeTokenAccess",
      "outputs": [],
      "payable": false,
      "stateMutability": "nonpayable",
      "type": "function"
    },
    {
      "constant": true,
      "inputs": [
        {
          "name": "",
          "type": "address"
        }
      ],
      "name": "admins",
      "outputs": [
        {
          "name": "",
          "type": "bool"
        }
      ],
      "payable": false,
      "stateMutability": "view",
      "type": "function"
    },
    {
      "constant": false,
      "inputs": [
        {
          "name": "_name",
          "type": "bytes32"
        },
        {
          "name": "_destination",
          "type": "address"
        }
      ],
      "name": "addContract",
      "outputs": [],
      "payable": false,
      "stateMutability": "nonpayable",
      "type": "function"
    },
    {
      "constant": true,
      "inputs": [
        {
          "name": "",
          "type": "address"
        }
      ],
      "name": "pending",
      "outputs": [
        {
          "name": "",
          "type": "bool"
        }
      ],
      "payable": false,
      "stateMutability": "view",
      "type": "function"
    },
    {
      "constant": false,
      "inputs": [
        {
          "name": "_newAdmin",
          "type": "address"
        }
      ],
      "name": "addAdmin",
      "outputs": [],
      "payable": false,
      "stateMutability": "nonpayable",
      "type": "function"
    },
    {
      "constant": true,
      "inputs": [
        {
          "name": "",
          "type": "address"
        }
      ],
      "name": "tokenAccess",
      "outputs": [
        {
          "name": "",
          "type": "bool"
        }
      ],
      "payable": false,
      "stateMutability": "view",
      "type": "function"
    },
    {
      "constant": true,
      "inputs": [],
      "name": "requireApproval",
      "outputs": [
        {
          "name": "",
          "type": "bool"
        }
      ],
      "payable": false,
      "stateMutability": "view",
      "type": "function"
    },
    {
      "constant": false,
      "inputs": [
        {
          "name": "_name",
          "type": "bytes32"
        }
      ],
      "name": "removeContract",
      "outputs": [],
      "payable": false,
      "stateMutability": "nonpayable",
      "type": "function"
    },
    {
      "constant": true,
      "inputs": [
        {
          "name": "",
          "type": "address"
        }
      ],
      "name": "blacklisted",
      "outputs": [
        {
          "name": "",
          "type": "bool"
        }
      ],
      "payable": false,
      "stateMutability": "view",
      "type": "function"
    },
    {
      "constant": true,
      "inputs": [
        {
          "name": "",
          "type": "bytes32"
        }
      ],
      "name": "contracts",
      "outputs": [
        {
          "name": "",
          "type": "address"
        }
      ],
      "payable": false,
      "stateMutability": "view",
      "type": "function"
    },
    {
      "anonymous": false,
      "inputs": [
        {
          "indexed": false,
          "name": "_user",
          "type": "address"
        },
        {
          "indexed": false,
          "name": "_timestamp",
          "type": "uint256"
        }
      ],
      "name": "logJoin",
      "type": "event"
    },
    {
      "anonymous": false,
      "inputs": [
        {
          "indexed": false,
          "name": "_subject",
          "type": "address"
        },
        {
          "indexed": false,
          "name": "_by",
          "type": "address"
        },
        {
          "indexed": false,
          "name": "_timestamp",
          "type": "uint256"
        }
      ],
      "name": "logBlacklist",
      "type": "event"
    },
    {
      "anonymous": false,
      "inputs": [
        {
          "indexed": false,
          "name": "_subject",
          "type": "address"
        },
        {
          "indexed": false,
          "name": "_by",
          "type": "address"
        },
        {
          "indexed": false,
          "name": "_timestamp",
          "type": "uint256"
        }
      ],
      "name": "logWhitelist",
      "type": "event"
    },
    {
      "anonymous": false,
      "inputs": [
        {
          "indexed": false,
          "name": "_subject",
          "type": "address"
        },
        {
          "indexed": false,
          "name": "_by",
          "type": "address"
        },
        {
          "indexed": false,
          "name": "_timestamp",
          "type": "uint256"
        },
        {
          "indexed": false,
          "name": "_accepted",
          "type": "bool"
        }
      ],
      "name": "logApprove",
      "type": "event"
    },
    {
      "anonymous": false,
      "inputs": [
        {
          "indexed": false,
          "name": "_changedAdmin",
          "type": "address"
        },
        {
          "indexed": false,
          "name": "_status",
          "type": "bool"
        },
        {
          "indexed": false,
          "name": "_setBy",
          "type": "address"
        },
        {
          "indexed": false,
          "name": "_timestamp",
          "type": "uint256"
        }
      ],
      "name": "logAdminChange",
      "type": "event"
    },
    {
      "constant": true,
      "inputs": [
        {
          "name": "_user",
          "type": "address"
        }
      ],
      "name": "isMember",
      "outputs": [
        {
          "name": "",
          "type": "bool"
        }
      ],
      "payable": false,
      "stateMutability": "view",
      "type": "function"
    },
    {
      "constant": false,
      "inputs": [],
      "name": "toggleApproval",
      "outputs": [],
      "payable": false,
      "stateMutability": "nonpayable",
      "type": "function"
    },
    {
      "constant": false,
      "inputs": [],
      "name": "join",
      "outputs": [],
      "payable": false,
      "stateMutability": "nonpayable",
      "type": "function"
    },
    {
      "constant": false,
      "inputs": [
        {
          "name": "_user",
          "type": "address"
        },
        {
          "name": "_accepted",
          "type": "bool"
        }
      ],
      "name": "approve",
      "outputs": [],
      "payable": false,
      "stateMutability": "nonpayable",
      "type": "function"
    },
    {
      "constant": false,
      "inputs": [],
      "name": "leave",
      "outputs": [],
      "payable": false,
      "stateMutability": "nonpayable",
      "type": "function"
    },
    {
      "constant": false,
      "inputs": [
        {
          "name": "_user",
          "type": "address"
        }
      ],
      "name": "blacklist",
      "outputs": [],
      "payable": false,
      "stateMutability": "nonpayable",
      "type": "function"
    },
    {
      "constant": false,
      "inputs": [
        {
          "name": "_user",
          "type": "address"
        }
      ],
      "name": "whitelist",
      "outputs": [],
      "payable": false,
      "stateMutability": "nonpayable",
      "type": "function"
    }
  ],
  "bytecode": "0x608060405260016000803373ffffffffffffffffffffffffffffffffffffffff1673ffffffffffffffffffffffffffffffffffffffff16815260200190815260200160002060006101000a81548160ff02191690831515021790555061156a8061006a6000396000f300608060405260043610610112576000357c0100000000000000000000000000000000000000000000000000000000900463ffffffff16806308ae4b0c146101175780631217db48146101725780631785f53c1461018957806324d7806c146101cc5780632f5fe505146102275780633d140d211461026a578063429b62e5146102b95780635188f996146103145780635eebea201461036557806370480275146103c0578063787799ea1461040357806382d5ea6c1461045e5780639b19251a1461048d578063a230c524146104d0578063a43e04d81461052b578063b688a3631461055c578063d66d9e1914610573578063dbac26e91461058a578063ec56a373146105e5578063f9f92be414610656575b600080fd5b34801561012357600080fd5b50610158600480360381019080803573ffffffffffffffffffffffffffffffffffffffff169060200190929190505050610699565b604051808215151515815260200191505060405180910390f35b34801561017e57600080fd5b506101876106b9565b005b34801561019557600080fd5b506101ca600480360381019080803573ffffffffffffffffffffffffffffffffffffffff1690602001909291905050506106f9565b005b3480156101d857600080fd5b5061020d600480360381019080803573ffffffffffffffffffffffffffffffffffffffff169060200190929190505050610846565b604051808215151515815260200191505060405180910390f35b34801561023357600080fd5b50610268600480360381019080803573ffffffffffffffffffffffffffffffffffffffff16906020019092919050505061089b565b005b34801561027657600080fd5b506102b7600480360381019080803573ffffffffffffffffffffffffffffffffffffffff169060200190929190803515159060200190929190505050610956565b005b3480156102c557600080fd5b506102fa600480360381019080803573ffffffffffffffffffffffffffffffffffffffff169060200190929190505050610c31565b604051808215151515815260200191505060405180910390f35b34801561032057600080fd5b506103636004803603810190808035600019169060200190929190803573ffffffffffffffffffffffffffffffffffffffff169060200190929190505050610c51565b005b34801561037157600080fd5b506103a6600480360381019080803573ffffffffffffffffffffffffffffffffffffffff169060200190929190505050610cc3565b604051808215151515815260200191505060405180910390f35b3480156103cc57600080fd5b50610401600480360381019080803573ffffffffffffffffffffffffffffffffffffffff169060200190929190505050610ce3565b005b34801561040f57600080fd5b50610444600480360381019080803573ffffffffffffffffffffffffffffffffffffffff169060200190929190505050610e39565b604051808215151515815260200191505060405180910390f35b34801561046a57600080fd5b50610473610e59565b604051808215151515815260200191505060405180910390f35b34801561049957600080fd5b506104ce600480360381019080803573ffffffffffffffffffffffffffffffffffffffff169060200190929190505050610e6c565b005b3480156104dc57600080fd5b50610511600480360381019080803573ffffffffffffffffffffffffffffffffffffffff169060200190929190505050610fc9565b604051808215151515815260200191505060405180910390f35b34801561053757600080fd5b5061055a600480360381019080803560001916906020019092919050505061101f565b005b34801561056857600080fd5b50610571611074565b005b34801561057f57600080fd5b5061058861133d565b005b34801561059657600080fd5b506105cb600480360381019080803573ffffffffffffffffffffffffffffffffffffffff16906020019092919050505061138e565b604051808215151515815260200191505060405180910390f35b3480156105f157600080fd5b5061061460048036038101908080356000191690602001909291905050506113ae565b604051808273ffffffffffffffffffffffffffffffffffffffff1673ffffffffffffffffffffffffffffffffffffffff16815260200191505060405180910390f35b34801561066257600080fd5b50610697600480360381019080803573ffffffffffffffffffffffffffffffffffffffff1690602001909291905050506113e1565b005b60046020528060005260406000206000915054906101000a900460ff1681565b6106c233610846565b15156106cd57600080fd5b600660009054906101000a900460ff1615600660006101000a81548160ff021916908315150217905550565b61070233610846565b151561070d57600080fd5b600073ffffffffffffffffffffffffffffffffffffffff168173ffffffffffffffffffffffffffffffffffffffff161415151561074957600080fd5b6000808273ffffffffffffffffffffffffffffffffffffffff1673ffffffffffffffffffffffffffffffffffffffff16815260200190815260200160002060006101000a81549060ff02191690557f5ef5c5de4de4d24d5276eec30286f36e62f45f50a1225613606cd89afcddfe128160003342604051808573ffffffffffffffffffffffffffffffffffffffff1673ffffffffffffffffffffffffffffffffffffffff168152602001841515151581526020018373ffffffffffffffffffffffffffffffffffffffff1673ffffffffffffffffffffffffffffffffffffffff16815260200182815260200194505050505060405180910390a150565b60008060008373ffffffffffffffffffffffffffffffffffffffff1673ffffffffffffffffffffffffffffffffffffffff16815260200190815260200160002060009054906101000a900460ff169050919050565b6108a433610846565b15156108af57600080fd5b600260008273ffffffffffffffffffffffffffffffffffffffff1673ffffffffffffffffffffffffffffffffffffffff16815260200190815260200160002060009054906101000a900460ff1615600260008373ffffffffffffffffffffffffffffffffffffffff1673ffffffffffffffffffffffffffffffffffffffff16815260200190815260200160002060006101000a81548160ff02191690831515021790555050565b61095f33610846565b151561096a57600080fd5b600560003373ffffffffffffffffffffffffffffffffffffffff1673ffffffffffffffffffffffffffffffffffffffff16815260200190815260200160002060009054906101000a900460ff161515156109c357600080fd5b8015610b29576000600360008473ffffffffffffffffffffffffffffffffffffffff1673ffffffffffffffffffffffffffffffffffffffff16815260200190815260200160002060006101000a81548160ff0219169083151502179055506001600460008473ffffffffffffffffffffffffffffffffffffffff1673ffffffffffffffffffffffffffffffffffffffff16815260200190815260200160002060006101000a81548160ff0219169083151502179055507f2eeed01b4ca367d0050baccaf6766c3983e2939bec0f42abea783198050702b582334284604051808573ffffffffffffffffffffffffffffffffffffffff1673ffffffffffffffffffffffffffffffffffffffff1681526020018473ffffffffffffffffffffffffffffffffffffffff1673ffffffffffffffffffffffffffffffffffffffff1681526020018381526020018215151515815260200194505050505060405180910390a1610c2d565b6000600360008473ffffffffffffffffffffffffffffffffffffffff1673ffffffffffffffffffffffffffffffffffffffff16815260200190815260200160002060006101000a81548160ff0219169083151502179055507f2eeed01b4ca367d0050baccaf6766c3983e2939bec0f42abea783198050702b582334284604051808573ffffffffffffffffffffffffffffffffffffffff1673ffffffffffffffffffffffffffffffffffffffff1681526020018473ffffffffffffffffffffffffffffffffffffffff1673ffffffffffffffffffffffffffffffffffffffff1681526020018381526020018215151515815260200194505050505060405180910390a15b5050565b60006020528060005260406000206000915054906101000a900460ff1681565b610c5a33610846565b1515610c6557600080fd5b8060016000846000191660001916815260200190815260200160002060006101000a81548173ffffffffffffffffffffffffffffffffffffffff021916908373ffffffffffffffffffffffffffffffffffffffff1602179055505050565b60036020528060005260406000206000915054906101000a900460ff1681565b610cec33610846565b1515610cf757600080fd5b600073ffffffffffffffffffffffffffffffffffffffff168173ffffffffffffffffffffffffffffffffffffffff1614151515610d3357600080fd5b60016000808373ffffffffffffffffffffffffffffffffffffffff1673ffffffffffffffffffffffffffffffffffffffff16815260200190815260200160002060006101000a81548160ff0219169083151502179055507f5ef5c5de4de4d24d5276eec30286f36e62f45f50a1225613606cd89afcddfe128160013342604051808573ffffffffffffffffffffffffffffffffffffffff1673ffffffffffffffffffffffffffffffffffffffff168152602001841515151581526020018373ffffffffffffffffffffffffffffffffffffffff1673ffffffffffffffffffffffffffffffffffffffff16815260200182815260200194505050505060405180910390a150565b60026020528060005260406000206000915054906101000a900460ff1681565b600660009054906101000a900460ff1681565b610e7533610846565b1515610e8057600080fd5b600560008273ffffffffffffffffffffffffffffffffffffffff1673ffffffffffffffffffffffffffffffffffffffff16815260200190815260200160002060006101000a81549060ff02191690556001600460008373ffffffffffffffffffffffffffffffffffffffff1673ffffffffffffffffffffffffffffffffffffffff16815260200190815260200160002060006101000a81548160ff0219169083151502179055507f9f28e35e024b107c8f259c032fc78d487299cf03c8605e23be82df191ab98753813342604051808473ffffffffffffffffffffffffffffffffffffffff1673ffffffffffffffffffffffffffffffffffffffff1681526020018373ffffffffffffffffffffffffffffffffffffffff1673ffffffffffffffffffffffffffffffffffffffff168152602001828152602001935050505060405180910390a150565b6000600460008373ffffffffffffffffffffffffffffffffffffffff1673ffffffffffffffffffffffffffffffffffffffff16815260200190815260200160002060009054906101000a900460ff169050919050565b61102833610846565b151561103357600080fd5b60016000826000191660001916815260200190815260200160002060006101000a81549073ffffffffffffffffffffffffffffffffffffffff021916905550565b600160007f757365727300000000000000000000000000000000000000000000000000000060001916815260200190815260200160002060009054906101000a900473ffffffffffffffffffffffffffffffffffffffff1673ffffffffffffffffffffffffffffffffffffffff1663c3c5a547336040518263ffffffff167c0100000000000000000000000000000000000000000000000000000000028152600401808273ffffffffffffffffffffffffffffffffffffffff1673ffffffffffffffffffffffffffffffffffffffff168152602001915050602060405180830381600087803b15801561116657600080fd5b505af115801561117a573d6000803e3d6000fd5b505050506040513d602081101561119057600080fd5b810190808051906020019092919050505015156111ac57600080fd5b600560003373ffffffffffffffffffffffffffffffffffffffff1673ffffffffffffffffffffffffffffffffffffffff16815260200190815260200160002060009054906101000a900460ff1615151561120557600080fd5b600660009054906101000a900460ff1615611277576001600360003373ffffffffffffffffffffffffffffffffffffffff1673ffffffffffffffffffffffffffffffffffffffff16815260200190815260200160002060006101000a81548160ff0219169083151502179055506112d0565b6001600460003373ffffffffffffffffffffffffffffffffffffffff1673ffffffffffffffffffffffffffffffffffffffff16815260200190815260200160002060006101000a81548160ff0219169083151502179055505b7ff533b932587fa9c8bfb23e7296c1d3cb84263f0e9170aacf2a5aa55fd949cb493342604051808373ffffffffffffffffffffffffffffffffffffffff1673ffffffffffffffffffffffffffffffffffffffff1681526020018281526020019250505060405180910390a1565b600460003373ffffffffffffffffffffffffffffffffffffffff1673ffffffffffffffffffffffffffffffffffffffff16815260200190815260200160002060006101000a81549060ff0219169055565b60056020528060005260406000206000915054906101000a900460ff1681565b60016020528060005260406000206000915054906101000a900473ffffffffffffffffffffffffffffffffffffffff1681565b6113ea33610846565b15156113f557600080fd5b6001600560008373ffffffffffffffffffffffffffffffffffffffff1673ffffffffffffffffffffffffffffffffffffffff16815260200190815260200160002060006101000a81548160ff021916908315150217905550600460008273ffffffffffffffffffffffffffffffffffffffff1673ffffffffffffffffffffffffffffffffffffffff16815260200190815260200160002060006101000a81549060ff02191690557f2c1794a112911ff6b244932f5fc1824b6f9fd2520c8b681ebc543120155a7a1c813342604051808473ffffffffffffffffffffffffffffffffffffffff1673ffffffffffffffffffffffffffffffffffffffff1681526020018373ffffffffffffffffffffffffffffffffffffffff1673ffffffffffffffffffffffffffffffffffffffff168152602001828152602001935050505060405180910390a1505600a165627a7a72305820cfce628649858b5603f1adc5c8c4c39496a36b9f85a4e82291231bc045e043370029",
  "source": "pragma solidity ^0.4.23;\r\n\r\nimport {MintableToken} from './Token.sol';\r\nimport './UsersRegistry.sol';\r\n\r\ninterface Organisation {\r\n  function isAdmin(address _user) external view returns (bool);\r\n  function isMember(address _user) external view returns (bool);\r\n  function mintToken(address _to, uint _amount) external;\r\n  function contracts(bytes32 _name) external view returns (address);\r\n}\r\ncontract Administrators {\r\n\r\n  mapping(address => bool) public admins;\r\n\r\n  event logAdminChange(address _changedAdmin, bool _status,  address _setBy, uint _timestamp);\r\n\r\n  constructor() public {\r\n    admins[msg.sender] = true;\r\n  }\r\n\r\n  function isAdmin(address _user) public view returns (bool) {\r\n    return admins[_user];\r\n  }\r\n\r\n  function addAdmin(address _newAdmin) external {\r\n    require(isAdmin(msg.sender));\r\n    require(_newAdmin != address(0));\r\n    admins[_newAdmin] = true;\r\n    emit logAdminChange(_newAdmin, true, msg.sender, now);\r\n  }\r\n\r\n  function removeAdmin(address _remove) external {\r\n    require(isAdmin(msg.sender));\r\n    require(_remove != address(0));\r\n    delete admins[_remove];\r\n    emit logAdminChange(_remove, false, msg.sender, now);\r\n  }\r\n}\r\n\r\ncontract ContractRegistry is Administrators {\r\n\r\n  mapping(bytes32 => address) public contracts;\r\n  mapping(address => bool) public tokenAccess;\r\n\r\n  function addContract(bytes32 _name, address _destination) public {\r\n      require(isAdmin(msg.sender));\r\n      contracts[_name] = _destination;\r\n  }\r\n\r\n  function removeContract(bytes32 _name) public {\r\n      require(isAdmin(msg.sender));\r\n      delete contracts[_name];\r\n  }\r\n\r\n  function changeTokenAccess(address _contract) public {\r\n    require(isAdmin(msg.sender));\r\n    tokenAccess[_contract] = !tokenAccess[_contract];\r\n  }\r\n}\r\n\r\ncontract Membership is ContractRegistry {\r\n\r\n  event logJoin(address _user, uint _timestamp);\r\n  event logBlacklist(address _subject, address _by, uint _timestamp);\r\n  event logWhitelist(address _subject, address _by, uint _timestamp);\r\n  event logApprove(address _subject, address _by, uint _timestamp, bool _accepted);\r\n\r\n  mapping(address => bool) public pending;\r\n  mapping(address => bool) public members;\r\n  mapping(address => bool) public blacklisted;\r\n\r\n  bool public requireApproval;\r\n\r\n  function isMember(address _user) public view returns (bool) {\r\n    return members[_user];\r\n  }\r\n\r\n  function toggleApproval() external {\r\n      require(isAdmin(msg.sender));\r\n      requireApproval = !requireApproval;\r\n  }\r\n\r\n  function join() external {\r\n    require(UsersRegistry(contracts[\"users\"]).isRegistered(msg.sender));\r\n    require(!blacklisted[msg.sender]);\r\n    if (requireApproval) {\r\n     pending[msg.sender] = true;\r\n    } else {\r\n     members[msg.sender] = true;\r\n    }\r\n    emit logJoin(msg.sender, now);\r\n  }\r\n\r\n  function approve(address _user, bool _accepted) external {\r\n    require(isAdmin(msg.sender));\r\n    require(!blacklisted[msg.sender]);\r\n    if (_accepted) {\r\n      pending[_user] = false;\r\n      members[_user] = true;\r\n      emit logApprove(_user, msg.sender, now, _accepted);\r\n    } else {\r\n      pending[_user] = false;\r\n      emit logApprove(_user, msg.sender, now, _accepted);\r\n    }\r\n  }\r\n\r\n  function leave() external {\r\n    delete members[msg.sender];\r\n  }\r\n\r\n  function blacklist(address _user) external {\r\n    require(isAdmin(msg.sender));\r\n    blacklisted[_user] = true;\r\n    delete members[_user];\r\n    emit logBlacklist(_user, msg.sender, now);\r\n  }\r\n\r\n  function whitelist(address _user) external {\r\n    require(isAdmin(msg.sender));\r\n    delete blacklisted[_user];\r\n    members[_user] = true;\r\n    emit logWhitelist(_user, msg.sender, now);\r\n  }\r\n}\r\n\r\ncontract OrganisationContract is Administrators, ContractRegistry, Membership {\r\n\r\n  event logCreateOrganisation(address _contract, address _creator, uint _timestamp);\r\n\r\n  constructor () public {\r\n    emit logCreateOrganisation(address(this), msg.sender, now);\r\n  }\r\n\r\n  function setOrganisationIdentity(bytes32 _name, bytes32 _profile) external {\r\n    require(isAdmin(msg.sender));\r\n    UsersRegistry(contracts[\"users\"]).register(_name, _profile);\r\n  }\r\n\r\n  function mintToken(address _to, uint _amount) public {\r\n    require(isAdmin(msg.sender) || tokenAccess[msg.sender]);\r\n    MintableToken(contracts[\"token\"]).mint(_to, _amount);\r\n  }\r\n}\r\n",
  "sourcePath": "C:\\Users\\Nico\\Desktop\\knuckles.eth\\contracts\\contracts\\OrganisationContract.sol",
  "compiler": {
    "name": "solc",
    "version": "0.4.25+commit.59dbf8f1.Emscripten.clang"
  },
  "schemaVersion": "3.0.5",
  "updatedAt": "2019-04-02T20:29:55.896Z",
  "devdoc": {
    "methods": {}
  },
  "userdoc": {
    "methods": {}
  }
}