{
  "contractName": "RecurringBountyFactory",
  "abi": [
    {
      "inputs": [
        {
          "name": "_organisation",
          "type": "address"
        },
        {
          "name": "_name",
          "type": "bytes32"
        },
        {
          "name": "_profile",
          "type": "bytes32"
        }
      ],
      "payable": false,
      "stateMutability": "nonpayable",
      "type": "constructor",
      "signature": "constructor"
    },
    {
      "anonymous": false,
      "inputs": [
        {
          "indexed": true,
          "name": "issuer",
          "type": "address"
        },
        {
          "indexed": false,
          "name": "bounty",
          "type": "address"
        },
        {
          "indexed": false,
          "name": "_reference",
          "type": "bytes32"
        }
      ],
      "name": "logRecurringBountyCreated",
      "type": "event",
      "signature": "0x62aed608b543d6eca68cf05659648d37c2f7ac2dc0e2af8e6dd47be2bbab73a1"
    },
    {
      "constant": false,
      "inputs": [
        {
          "name": "_reference",
          "type": "bytes32"
        },
        {
          "name": "_deadline",
          "type": "uint256"
        },
        {
          "name": "_reward",
          "type": "uint256"
        },
        {
          "name": "_funding",
          "type": "uint256"
        }
      ],
      "name": "createBounty",
      "outputs": [],
      "payable": false,
      "stateMutability": "nonpayable",
      "type": "function",
      "signature": "0x9a366576"
    },
    {
      "constant": false,
      "inputs": [
        {
          "name": "_reference",
          "type": "bytes32"
        },
        {
          "name": "_deadline",
          "type": "uint256"
        },
        {
          "name": "_reward",
          "type": "uint256"
        },
        {
          "name": "_funding",
          "type": "uint256"
        }
      ],
      "name": "createMintableBounty",
      "outputs": [],
      "payable": false,
      "stateMutability": "nonpayable",
      "type": "function",
      "signature": "0x83636c2d"
    },
    {
      "constant": false,
      "inputs": [
        {
          "name": "_bounty",
          "type": "address"
        },
        {
          "name": "_id",
          "type": "uint256"
        }
      ],
      "name": "acceptMintable",
      "outputs": [],
      "payable": false,
      "stateMutability": "nonpayable",
      "type": "function",
      "signature": "0xf7377ee1"
    },
    {
      "constant": false,
      "inputs": [
        {
          "name": "_bounty",
          "type": "address"
        }
      ],
      "name": "cancelMintable",
      "outputs": [],
      "payable": false,
      "stateMutability": "nonpayable",
      "type": "function",
      "signature": "0x0dedd3b2"
    },
    {
      "constant": false,
      "inputs": [
        {
          "name": "_bounty",
          "type": "address"
        },
        {
          "name": "_funding",
          "type": "uint256"
        }
      ],
      "name": "mintFunding",
      "outputs": [],
      "payable": false,
      "stateMutability": "nonpayable",
      "type": "function",
      "signature": "0xc65d86fc"
    }
  ],
  "bytecode": "0x608060405234801561001057600080fd5b50604051606080611b108339810180604052810190808051906020019092919080519060200190929190805190602001909291905050506000836000806101000a81548173ffffffffffffffffffffffffffffffffffffffff021916908373ffffffffffffffffffffffffffffffffffffffff1602179055508373ffffffffffffffffffffffffffffffffffffffff1663ec56a3736040518163ffffffff167c010000000000000000000000000000000000000000000000000000000002815260040180807f75736572730000000000000000000000000000000000000000000000000000008152506020019050602060405180830381600087803b15801561011857600080fd5b505af115801561012c573d6000803e3d6000fd5b505050506040513d602081101561014257600080fd5b810190808051906020019092919050505090508073ffffffffffffffffffffffffffffffffffffffff16632f92673284846040518363ffffffff167c0100000000000000000000000000000000000000000000000000000000028152600401808360001916600019168152602001826000191660001916815260200192505050600060405180830381600087803b1580156101dc57600080fd5b505af11580156101f0573d6000803e3d6000fd5b5050505050505050611909806102076000396000f30060806040526004361061006d576000357c0100000000000000000000000000000000000000000000000000000000900463ffffffff1680630dedd3b21461007257806383636c2d146100b55780639a36657614610104578063c65d86fc14610153578063f7377ee1146101a0575b600080fd5b34801561007e57600080fd5b506100b3600480360381019080803573ffffffffffffffffffffffffffffffffffffffff1690602001909291905050506101ed565b005b3480156100c157600080fd5b5061010260048036038101908080356000191690602001909291908035906020019092919080359060200190929190803590602001909291905050506103d7565b005b34801561011057600080fd5b506101516004803603810190808035600019169060200190929190803590602001909291908035906020019092919080359060200190929190505050610a91565b005b34801561015f57600080fd5b5061019e600480360381019080803573ffffffffffffffffffffffffffffffffffffffff16906020019092919080359060200190929190505050611255565b005b3480156101ac57600080fd5b506101eb600480360381019080803573ffffffffffffffffffffffffffffffffffffffff169060200190929190803590602001909291905050506114a0565b005b6000809054906101000a900473ffffffffffffffffffffffffffffffffffffffff1673ffffffffffffffffffffffffffffffffffffffff166324d7806c336040518263ffffffff167c0100000000000000000000000000000000000000000000000000000000028152600401808273ffffffffffffffffffffffffffffffffffffffff1673ffffffffffffffffffffffffffffffffffffffff168152602001915050602060405180830381600087803b1580156102a957600080fd5b505af11580156102bd573d6000803e3d6000fd5b505050506040513d60208110156102d357600080fd5b81019080805190602001909291905050501515610358576040517f08c379a000000000000000000000000000000000000000000000000000000000815260040180806020018281038252600c8152602001807f556e617574686f72697a6564000000000000000000000000000000000000000081525060200191505060405180910390fd5b8073ffffffffffffffffffffffffffffffffffffffff1663a913eb086040518163ffffffff167c0100000000000000000000000000000000000000000000000000000000028152600401600060405180830381600087803b1580156103bc57600080fd5b505af11580156103d0573d6000803e3d6000fd5b5050505050565b600080831115156103e757600080fd5b82821015151561045f576040517f08c379a00000000000000000000000000000000000000000000000000000000081526004018080602001828103825260108152602001807f31207061796f7574206d696e696d756d0000000000000000000000000000000081525060200191505060405180910390fd5b6000809054906101000a900473ffffffffffffffffffffffffffffffffffffffff1673ffffffffffffffffffffffffffffffffffffffff1663a230c524336040518263ffffffff167c0100000000000000000000000000000000000000000000000000000000028152600401808273ffffffffffffffffffffffffffffffffffffffff1673ffffffffffffffffffffffffffffffffffffffff168152602001915050602060405180830381600087803b15801561051b57600080fd5b505af115801561052f573d6000803e3d6000fd5b505050506040513d602081101561054557600080fd5b810190808051906020019092919050505015156105ca576040517f08c379a000000000000000000000000000000000000000000000000000000000815260040180806020018281038252600c8152602001807f556e617574686f72697a6564000000000000000000000000000000000000000081525060200191505060405180910390fd5b6000809054906101000a900473ffffffffffffffffffffffffffffffffffffffff1673ffffffffffffffffffffffffffffffffffffffff1663ec56a3736040518163ffffffff167c010000000000000000000000000000000000000000000000000000000002815260040180807f726563757272696e672d626f756e7479000000000000000000000000000000008152506020019050602060405180830381600087803b15801561067a57600080fd5b505af115801561068e573d6000803e3d6000fd5b505050506040513d60208110156106a457600080fd5b81019080805190602001909291905050506106bd611696565b808273ffffffffffffffffffffffffffffffffffffffff1673ffffffffffffffffffffffffffffffffffffffff168152602001915050604051809103906000f08015801561070f573d6000803e3d6000fd5b5090508073ffffffffffffffffffffffffffffffffffffffff1663dcdedb1e863087876000809054906101000a900473ffffffffffffffffffffffffffffffffffffffff1673ffffffffffffffffffffffffffffffffffffffff1663ec56a3736040518163ffffffff167c010000000000000000000000000000000000000000000000000000000002815260040180807f746f6b656e0000000000000000000000000000000000000000000000000000008152506020019050602060405180830381600087803b1580156107e257600080fd5b505af11580156107f6573d6000803e3d6000fd5b505050506040513d602081101561080c57600080fd5b81019080805190602001909291905050506040518663ffffffff167c01000000000000000000000000000000000000000000000000000000000281526004018086600019166000191681526020018573ffffffffffffffffffffffffffffffffffffffff1673ffffffffffffffffffffffffffffffffffffffff1681526020018481526020018381526020018273ffffffffffffffffffffffffffffffffffffffff1673ffffffffffffffffffffffffffffffffffffffff16815260200195505050505050600060405180830381600087803b1580156108eb57600080fd5b505af11580156108ff573d6000803e3d6000fd5b505050506000809054906101000a900473ffffffffffffffffffffffffffffffffffffffff1673ffffffffffffffffffffffffffffffffffffffff166379c6506882846040518363ffffffff167c0100000000000000000000000000000000000000000000000000000000028152600401808373ffffffffffffffffffffffffffffffffffffffff1673ffffffffffffffffffffffffffffffffffffffff16815260200182815260200192505050600060405180830381600087803b1580156109c757600080fd5b505af11580156109db573d6000803e3d6000fd5b505050506000809054906101000a900473ffffffffffffffffffffffffffffffffffffffff1673ffffffffffffffffffffffffffffffffffffffff167f62aed608b543d6eca68cf05659648d37c2f7ac2dc0e2af8e6dd47be2bbab73a18287604051808373ffffffffffffffffffffffffffffffffffffffff1673ffffffffffffffffffffffffffffffffffffffff16815260200182600019166000191681526020019250505060405180910390a25050505050565b60008083111515610aa157600080fd5b828210151515610b19576040517f08c379a00000000000000000000000000000000000000000000000000000000081526004018080602001828103825260108152602001807f31207061796f7574206d696e696d756d0000000000000000000000000000000081525060200191505060405180910390fd5b6000809054906101000a900473ffffffffffffffffffffffffffffffffffffffff1673ffffffffffffffffffffffffffffffffffffffff1663a230c524336040518263ffffffff167c0100000000000000000000000000000000000000000000000000000000028152600401808273ffffffffffffffffffffffffffffffffffffffff1673ffffffffffffffffffffffffffffffffffffffff168152602001915050602060405180830381600087803b158015610bd557600080fd5b505af1158015610be9573d6000803e3d6000fd5b505050506040513d6020811015610bff57600080fd5b81019080805190602001909291905050501515610c84576040517f08c379a000000000000000000000000000000000000000000000000000000000815260040180806020018281038252600c8152602001807f556e617574686f72697a6564000000000000000000000000000000000000000081525060200191505060405180910390fd5b6000809054906101000a900473ffffffffffffffffffffffffffffffffffffffff1673ffffffffffffffffffffffffffffffffffffffff1663ec56a3736040518163ffffffff167c010000000000000000000000000000000000000000000000000000000002815260040180807f726563757272696e672d626f756e7479000000000000000000000000000000008152506020019050602060405180830381600087803b158015610d3457600080fd5b505af1158015610d48573d6000803e3d6000fd5b505050506040513d6020811015610d5e57600080fd5b8101908080519060200190929190505050610d77611696565b808273ffffffffffffffffffffffffffffffffffffffff1673ffffffffffffffffffffffffffffffffffffffff168152602001915050604051809103906000f080158015610dc9573d6000803e3d6000fd5b5090508073ffffffffffffffffffffffffffffffffffffffff1663dcdedb1e863387876000809054906101000a900473ffffffffffffffffffffffffffffffffffffffff1673ffffffffffffffffffffffffffffffffffffffff1663ec56a3736040518163ffffffff167c010000000000000000000000000000000000000000000000000000000002815260040180807f746f6b656e0000000000000000000000000000000000000000000000000000008152506020019050602060405180830381600087803b158015610e9c57600080fd5b505af1158015610eb0573d6000803e3d6000fd5b505050506040513d6020811015610ec657600080fd5b81019080805190602001909291905050506040518663ffffffff167c01000000000000000000000000000000000000000000000000000000000281526004018086600019166000191681526020018573ffffffffffffffffffffffffffffffffffffffff1673ffffffffffffffffffffffffffffffffffffffff1681526020018481526020018381526020018273ffffffffffffffffffffffffffffffffffffffff1673ffffffffffffffffffffffffffffffffffffffff16815260200195505050505050600060405180830381600087803b158015610fa557600080fd5b505af1158015610fb9573d6000803e3d6000fd5b505050506000809054906101000a900473ffffffffffffffffffffffffffffffffffffffff1673ffffffffffffffffffffffffffffffffffffffff1663ec56a3736040518163ffffffff167c010000000000000000000000000000000000000000000000000000000002815260040180807f746f6b656e0000000000000000000000000000000000000000000000000000008152506020019050602060405180830381600087803b15801561106d57600080fd5b505af1158015611081573d6000803e3d6000fd5b505050506040513d602081101561109757600080fd5b810190808051906020019092919050505073ffffffffffffffffffffffffffffffffffffffff166323b872dd3383856040518463ffffffff167c0100000000000000000000000000000000000000000000000000000000028152600401808473ffffffffffffffffffffffffffffffffffffffff1673ffffffffffffffffffffffffffffffffffffffff1681526020018373ffffffffffffffffffffffffffffffffffffffff1673ffffffffffffffffffffffffffffffffffffffff1681526020018281526020019350505050602060405180830381600087803b15801561117e57600080fd5b505af1158015611192573d6000803e3d6000fd5b505050506040513d60208110156111a857600080fd5b810190808051906020019092919050505015156111c457600080fd5b3373ffffffffffffffffffffffffffffffffffffffff167f62aed608b543d6eca68cf05659648d37c2f7ac2dc0e2af8e6dd47be2bbab73a18287604051808373ffffffffffffffffffffffffffffffffffffffff1673ffffffffffffffffffffffffffffffffffffffff16815260200182600019166000191681526020019250505060405180910390a25050505050565b6000809054906101000a900473ffffffffffffffffffffffffffffffffffffffff1673ffffffffffffffffffffffffffffffffffffffff166324d7806c336040518263ffffffff167c0100000000000000000000000000000000000000000000000000000000028152600401808273ffffffffffffffffffffffffffffffffffffffff1673ffffffffffffffffffffffffffffffffffffffff168152602001915050602060405180830381600087803b15801561131157600080fd5b505af1158015611325573d6000803e3d6000fd5b505050506040513d602081101561133b57600080fd5b810190808051906020019092919050505015156113c0576040517f08c379a000000000000000000000000000000000000000000000000000000000815260040180806020018281038252600c8152602001807f556e617574686f72697a6564000000000000000000000000000000000000000081525060200191505060405180910390fd5b6000809054906101000a900473ffffffffffffffffffffffffffffffffffffffff1673ffffffffffffffffffffffffffffffffffffffff166379c6506883836040518363ffffffff167c0100000000000000000000000000000000000000000000000000000000028152600401808373ffffffffffffffffffffffffffffffffffffffff1673ffffffffffffffffffffffffffffffffffffffff16815260200182815260200192505050600060405180830381600087803b15801561148457600080fd5b505af1158015611498573d6000803e3d6000fd5b505050505050565b6000809054906101000a900473ffffffffffffffffffffffffffffffffffffffff1673ffffffffffffffffffffffffffffffffffffffff166324d7806c336040518263ffffffff167c0100000000000000000000000000000000000000000000000000000000028152600401808273ffffffffffffffffffffffffffffffffffffffff1673ffffffffffffffffffffffffffffffffffffffff168152602001915050602060405180830381600087803b15801561155c57600080fd5b505af1158015611570573d6000803e3d6000fd5b505050506040513d602081101561158657600080fd5b8101908080519060200190929190505050151561160b576040517f08c379a000000000000000000000000000000000000000000000000000000000815260040180806020018281038252600c8152602001807f556e617574686f72697a6564000000000000000000000000000000000000000081525060200191505060405180910390fd5b8173ffffffffffffffffffffffffffffffffffffffff1663774d8e16826040518263ffffffff167c010000000000000000000000000000000000000000000000000000000002815260040180828152602001915050600060405180830381600087803b15801561167a57600080fd5b505af115801561168e573d6000803e3d6000fd5b505050505050565b604051610237806116a7833901905600608060405234801561001057600080fd5b5060405160208061023783398101806040528101908080519060200190929190505050806000806101000a81548173ffffffffffffffffffffffffffffffffffffffff021916908373ffffffffffffffffffffffffffffffffffffffff160217905550506101b4806100836000396000f300608060405260043610610041576000357c0100000000000000000000000000000000000000000000000000000000900463ffffffff1680638abf60771461010c575b34801561004d57600080fd5b506000807c0100000000000000000000000000000000000000000000000000000000026000357fffffffff00000000000000000000000000000000000000000000000000000000167bffffffffffffffffffffffffffffffffffffffffffffffffffffffff1916141515156100c157600080fd5b6000809054906101000a900473ffffffffffffffffffffffffffffffffffffffff16905060405136600082376000813683855af43d806000843e8160008114610108578184f35b8184fd5b34801561011857600080fd5b50610121610163565b604051808273ffffffffffffffffffffffffffffffffffffffff1673ffffffffffffffffffffffffffffffffffffffff16815260200191505060405180910390f35b6000809054906101000a900473ffffffffffffffffffffffffffffffffffffffff16815600a165627a7a72305820068691aaf7cce6dfce8de8609ce094ade893fa118ad4e8a4f3a9d442ffefe5e10029a165627a7a72305820088af04250887417060e45eabd32f7656e68f72e7765c62dd5f3f9d243f7880d0029",
  "source": "pragma solidity ^0.4.23;\r\n\r\nimport './RecurringBountyInterface.sol';\r\nimport '../OrganisationContract.sol';\r\nimport '../BountyProxy.sol';\r\n\r\ncontract RecurringBountyFactory {\r\n  address organisation;\r\n\r\n  event logRecurringBountyCreated(address indexed issuer, address bounty, bytes32 _reference);\r\n\r\n    constructor(address _organisation, bytes32 _name, bytes32 _profile) public {\r\n        organisation = _organisation;\r\n        address _users = Organisation(_organisation).contracts(\"users\");\r\n        UsersRegistry(_users).register(_name, _profile);\r\n    }\r\n\r\n  function createBounty(bytes32 _reference, uint _deadline, uint _reward, uint _funding) external {\r\n    require(_reward > 0);\r\n    require(_funding >= _reward, \"1 payout minimum\");\r\n    require(OrganisationContract(organisation).isMember(msg.sender), \"Unauthorized\");\r\n    address _bounty = new BountyProxy(OrganisationContract(organisation).contracts(\"recurring-bounty\"));\r\n    RecurringBountyInterface(_bounty).createBounty(_reference, msg.sender, _deadline, _reward, OrganisationContract(organisation).contracts(\"token\"));\r\n    if(!ERC20(OrganisationContract(organisation).contracts(\"token\")).transferFrom(msg.sender, _bounty, _funding)) revert();\r\n    emit logRecurringBountyCreated( msg.sender, address(_bounty), _reference);\r\n  }\r\n\r\n  function createMintableBounty(bytes32 _reference, uint _deadline, uint _reward, uint _funding) external {\r\n    require(_reward > 0);\r\n    require(_funding >= _reward, \"1 payout minimum\");\r\n    require(OrganisationContract(organisation).isMember(msg.sender), \"Unauthorized\");\r\n    address _bounty = new BountyProxy(OrganisationContract(organisation).contracts(\"recurring-bounty\"));\r\n    RecurringBountyInterface(_bounty).createBounty(_reference, address(this), _deadline, _reward, OrganisationContract(organisation).contracts(\"token\"));\r\n    OrganisationContract(organisation).mintToken(_bounty, _funding);\r\n    emit logRecurringBountyCreated(organisation, address(_bounty), _reference);\r\n  }\r\n\r\n  function acceptMintable(address _bounty, uint _id) external {\r\n    require(OrganisationContract(organisation).isAdmin(msg.sender), \"Unauthorized\");\r\n    RecurringBountyInterface(_bounty).acceptCommit(_id);\r\n  }\r\n\r\n  function cancelMintable(address _bounty) external {\r\n    require(OrganisationContract(organisation).isAdmin(msg.sender), \"Unauthorized\");\r\n    RecurringBountyInterface(_bounty).cancelBounty();\r\n  }\r\n\r\n  function mintFunding(address _bounty, uint _funding) external {\r\n    require(OrganisationContract(organisation).isAdmin(msg.sender), \"Unauthorized\");\r\n    OrganisationContract(organisation).mintToken(_bounty, _funding);\r\n  }\r\n  /*\r\n  function upgradeMintable(address _bounty, address _implementation) external {\r\n    require(OrganisationContract(organisation).isAdmin(msg.sender), \"Unauthorized\");\r\n    BountyProxy(_bounty).upgrade(_implementation);\r\n  }\r\n  */\r\n}\r\n",
  "sourcePath": "C:/Users/N.vergauwen/desktop/knuckles.eth/contracts/contracts/recurring-bounties/RecurringBountyFactory.sol",
  "compiler": {
    "name": "solc",
    "version": "0.4.25+commit.59dbf8f1.Emscripten.clang"
  },
  "schemaVersion": "3.0.1",
  "updatedAt": "2019-02-12T12:38:11.306Z",
  "devdoc": {
    "methods": {}
  },
  "userdoc": {
    "methods": {}
  }
}