{
  "contractName": "RecurringBountyContract",
  "abi": [
    {
      "constant": true,
      "inputs": [],
      "name": "imp",
      "outputs": [
        {
          "name": "",
          "type": "address"
        }
      ],
      "payable": false,
      "stateMutability": "view",
      "type": "function",
      "signature": "0xba0f7a89"
    },
    {
      "anonymous": false,
      "inputs": [
        {
          "indexed": true,
          "name": "_by",
          "type": "address"
        },
        {
          "indexed": true,
          "name": "_bounty",
          "type": "address"
        },
        {
          "indexed": false,
          "name": "_timestamp",
          "type": "uint256"
        }
      ],
      "name": "logRecurringStartWork",
      "type": "event",
      "signature": "0x38c73891de210227d80296885699c63ec344d408744a4192d784a3b3705e4c1a"
    },
    {
      "anonymous": false,
      "inputs": [
        {
          "indexed": true,
          "name": "_by",
          "type": "address"
        },
        {
          "indexed": true,
          "name": "_bounty",
          "type": "address"
        },
        {
          "indexed": false,
          "name": "_id",
          "type": "uint256"
        },
        {
          "indexed": false,
          "name": "_timestamp",
          "type": "uint256"
        }
      ],
      "name": "logRecurringCommit",
      "type": "event",
      "signature": "0x6348efc17aa9a376d4c00dd43281f630971efcb7bb4470626c59f2442265f051"
    },
    {
      "anonymous": false,
      "inputs": [
        {
          "indexed": true,
          "name": "_winner",
          "type": "address"
        },
        {
          "indexed": true,
          "name": "_bounty",
          "type": "address"
        },
        {
          "indexed": false,
          "name": "_id",
          "type": "uint256"
        },
        {
          "indexed": false,
          "name": "_amount",
          "type": "uint256"
        },
        {
          "indexed": false,
          "name": "_timestamp",
          "type": "uint256"
        }
      ],
      "name": "logRecurringAccepted",
      "type": "event",
      "signature": "0x520645eadd1d6b2da3a6a053c0fd70b364f5cd120432bba23c33870532413f98"
    },
    {
      "anonymous": false,
      "inputs": [
        {
          "indexed": true,
          "name": "_by",
          "type": "address"
        },
        {
          "indexed": true,
          "name": "_bounty",
          "type": "address"
        },
        {
          "indexed": false,
          "name": "_timestamp",
          "type": "uint256"
        }
      ],
      "name": "logRecurringCancelled",
      "type": "event",
      "signature": "0xd0e8331ae08f5a0e3623ccc9c2eda24d74aa6ab37b8d68f4d8c82d316ecf8bda"
    },
    {
      "constant": false,
      "inputs": [
        {
          "name": "_reference",
          "type": "bytes32"
        },
        {
          "name": "_issuer",
          "type": "address"
        },
        {
          "name": "_deadline",
          "type": "uint256"
        },
        {
          "name": "_reward",
          "type": "uint256"
        },
        {
          "name": "_token",
          "type": "address"
        }
      ],
      "name": "createBounty",
      "outputs": [],
      "payable": false,
      "stateMutability": "nonpayable",
      "type": "function",
      "signature": "0xdcdedb1e"
    },
    {
      "constant": true,
      "inputs": [],
      "name": "getBounty",
      "outputs": [
        {
          "name": "",
          "type": "bytes32"
        },
        {
          "name": "",
          "type": "address"
        },
        {
          "name": "",
          "type": "uint256"
        },
        {
          "name": "",
          "type": "uint256"
        },
        {
          "name": "",
          "type": "uint256"
        },
        {
          "name": "",
          "type": "uint8"
        },
        {
          "name": "",
          "type": "address"
        }
      ],
      "payable": false,
      "stateMutability": "view",
      "type": "function",
      "signature": "0xf49bff7b"
    },
    {
      "constant": false,
      "inputs": [],
      "name": "startWork",
      "outputs": [],
      "payable": false,
      "stateMutability": "nonpayable",
      "type": "function",
      "signature": "0x01034979"
    },
    {
      "constant": true,
      "inputs": [],
      "name": "getCommits",
      "outputs": [
        {
          "name": "",
          "type": "uint256"
        }
      ],
      "payable": false,
      "stateMutability": "view",
      "type": "function",
      "signature": "0x2f1f7520"
    },
    {
      "constant": false,
      "inputs": [],
      "name": "cancelBounty",
      "outputs": [],
      "payable": false,
      "stateMutability": "nonpayable",
      "type": "function",
      "signature": "0xa913eb08"
    },
    {
      "constant": false,
      "inputs": [
        {
          "name": "_reference",
          "type": "bytes32"
        }
      ],
      "name": "submitCommit",
      "outputs": [],
      "payable": false,
      "stateMutability": "nonpayable",
      "type": "function",
      "signature": "0x62995898"
    },
    {
      "constant": true,
      "inputs": [
        {
          "name": "_id",
          "type": "uint256"
        }
      ],
      "name": "getCommit",
      "outputs": [
        {
          "name": "",
          "type": "bytes32"
        },
        {
          "name": "",
          "type": "address"
        },
        {
          "name": "",
          "type": "bool"
        },
        {
          "name": "",
          "type": "uint256"
        }
      ],
      "payable": false,
      "stateMutability": "view",
      "type": "function",
      "signature": "0xfcdbb8af"
    },
    {
      "constant": false,
      "inputs": [
        {
          "name": "_id",
          "type": "uint256"
        }
      ],
      "name": "acceptCommit",
      "outputs": [],
      "payable": false,
      "stateMutability": "nonpayable",
      "type": "function",
      "signature": "0x774d8e16"
    },
    {
      "constant": false,
      "inputs": [
        {
          "name": "_amount",
          "type": "uint256"
        },
        {
          "name": "_token",
          "type": "address"
        }
      ],
      "name": "withdraw",
      "outputs": [],
      "payable": false,
      "stateMutability": "nonpayable",
      "type": "function",
      "signature": "0x00f714ce"
    }
  ],
  "bytecode": "0x608060405234801561001057600080fd5b5061190e806100206000396000f3006080604052600436106100a3576000357c0100000000000000000000000000000000000000000000000000000000900463ffffffff168062f714ce146100a857806301034979146100f55780632f1f75201461010c5780636299589814610137578063774d8e1614610168578063a913eb0814610195578063ba0f7a89146101ac578063dcdedb1e14610203578063f49bff7b14610288578063fcdbb8af1461034b575b600080fd5b3480156100b457600080fd5b506100f360048036038101908080359060200190929190803573ffffffffffffffffffffffffffffffffffffffff1690602001909291905050506103d9565b005b34801561010157600080fd5b5061010a6107e3565b005b34801561011857600080fd5b506101216109ef565b6040518082815260200191505060405180910390f35b34801561014357600080fd5b5061016660048036038101908080356000191690602001909291905050506109fc565b005b34801561017457600080fd5b5061019360048036038101908080359060200190929190505050610e10565b005b3480156101a157600080fd5b506101aa6112ba565b005b3480156101b857600080fd5b506101c1611662565b604051808273ffffffffffffffffffffffffffffffffffffffff1673ffffffffffffffffffffffffffffffffffffffff16815260200191505060405180910390f35b34801561020f57600080fd5b506102866004803603810190808035600019169060200190929190803573ffffffffffffffffffffffffffffffffffffffff1690602001909291908035906020019092919080359060200190929190803573ffffffffffffffffffffffffffffffffffffffff169060200190929190505050611687565b005b34801561029457600080fd5b5061029d611754565b6040518088600019166000191681526020018773ffffffffffffffffffffffffffffffffffffffff1673ffffffffffffffffffffffffffffffffffffffff1681526020018681526020018581526020018481526020018360028111156102ff57fe5b60ff1681526020018273ffffffffffffffffffffffffffffffffffffffff1673ffffffffffffffffffffffffffffffffffffffff16815260200197505050505050505060405180910390f35b34801561035757600080fd5b50610376600480360381019080803590602001909291905050506117d8565b6040518085600019166000191681526020018473ffffffffffffffffffffffffffffffffffffffff1673ffffffffffffffffffffffffffffffffffffffff1681526020018315151515815260200182815260200194505050505060405180910390f35b3373ffffffffffffffffffffffffffffffffffffffff16600260009054906101000a900473ffffffffffffffffffffffffffffffffffffffff1673ffffffffffffffffffffffffffffffffffffffff1614151561049e576040517f08c379a000000000000000000000000000000000000000000000000000000000815260040180806020018281038252600c8152602001807f556e617574686f72697a6564000000000000000000000000000000000000000081525060200191505060405180910390fd5b600073ffffffffffffffffffffffffffffffffffffffff168173ffffffffffffffffffffffffffffffffffffffff161415156107755781600860009054906101000a900473ffffffffffffffffffffffffffffffffffffffff1673ffffffffffffffffffffffffffffffffffffffff166370a08231306040518263ffffffff167c0100000000000000000000000000000000000000000000000000000000028152600401808273ffffffffffffffffffffffffffffffffffffffff1673ffffffffffffffffffffffffffffffffffffffff168152602001915050602060405180830381600087803b15801561059257600080fd5b505af11580156105a6573d6000803e3d6000fd5b505050506040513d60208110156105bc57600080fd5b810190808051906020019092919050505010151515610643576040517f08c379a000000000000000000000000000000000000000000000000000000000815260040180806020018281038252601b8152602001807f436f6e7472616374206e6f7420656e6f7567682062616c616e6365000000000081525060200191505060405180910390fd5b600860009054906101000a900473ffffffffffffffffffffffffffffffffffffffff1673ffffffffffffffffffffffffffffffffffffffff1663a9059cbb600260009054906101000a900473ffffffffffffffffffffffffffffffffffffffff16846040518363ffffffff167c0100000000000000000000000000000000000000000000000000000000028152600401808373ffffffffffffffffffffffffffffffffffffffff1673ffffffffffffffffffffffffffffffffffffffff16815260200182815260200192505050602060405180830381600087803b15801561072a57600080fd5b505af115801561073e573d6000803e3d6000fd5b505050506040513d602081101561075457600080fd5b8101908080519060200190929190505050151561077057600080fd5b6107df565b600260009054906101000a900473ffffffffffffffffffffffffffffffffffffffff1673ffffffffffffffffffffffffffffffffffffffff166108fc839081150290604051600060405180830381858888f193505050501580156107dd573d6000803e3d6000fd5b505b5050565b600060028111156107f057fe5b600660009054906101000a900460ff16600281111561080b57fe5b14151561081757600080fd5b600554600860009054906101000a900473ffffffffffffffffffffffffffffffffffffffff1673ffffffffffffffffffffffffffffffffffffffff166370a08231306040518263ffffffff167c0100000000000000000000000000000000000000000000000000000000028152600401808273ffffffffffffffffffffffffffffffffffffffff1673ffffffffffffffffffffffffffffffffffffffff168152602001915050602060405180830381600087803b1580156108d757600080fd5b505af11580156108eb573d6000803e3d6000fd5b505050506040513d602081101561090157600080fd5b810190808051906020019092919050505010151515610988576040517f08c379a000000000000000000000000000000000000000000000000000000000815260040180806020018281038252601c8152602001807f436f6e7472616374206e6f7420656e6f756768202062616c616e63650000000081525060200191505060405180910390fd5b3073ffffffffffffffffffffffffffffffffffffffff163373ffffffffffffffffffffffffffffffffffffffff167f38c73891de210227d80296885699c63ec344d408744a4192d784a3b3705e4c1a426040518082815260200191505060405180910390a3565b6000600780549050905090565b610a0461189e565b6000600554600860009054906101000a900473ffffffffffffffffffffffffffffffffffffffff1673ffffffffffffffffffffffffffffffffffffffff166370a08231306040518263ffffffff167c0100000000000000000000000000000000000000000000000000000000028152600401808273ffffffffffffffffffffffffffffffffffffffff1673ffffffffffffffffffffffffffffffffffffffff168152602001915050602060405180830381600087803b158015610ac657600080fd5b505af1158015610ada573d6000803e3d6000fd5b505050506040513d6020811015610af057600080fd5b810190808051906020019092919050505010151515610b77576040517f08c379a000000000000000000000000000000000000000000000000000000000815260040180806020018281038252601b8152602001807f436f6e7472616374206e6f7420656e6f7567682062616c616e6365000000000081525060200191505060405180910390fd5b3373ffffffffffffffffffffffffffffffffffffffff16600260009054906101000a900473ffffffffffffffffffffffffffffffffffffffff1673ffffffffffffffffffffffffffffffffffffffff1614151515610c3d576040517f08c379a000000000000000000000000000000000000000000000000000000000815260040180806020018281038252600c8152602001807f556e617574686f72697a6564000000000000000000000000000000000000000081525060200191505060405180910390fd5b42600454111515610c4d57600080fd5b60006002811115610c5a57fe5b600660009054906101000a900460ff166002811115610c7557fe5b141515610c8157600080fd5b828260000190600019169081600019168152505033826020019073ffffffffffffffffffffffffffffffffffffffff16908173ffffffffffffffffffffffffffffffffffffffff16815250506000826040019015159081151581525050428260600181815250506001600783908060018154018082558091505090600182039060005260206000209060030201600090919290919091506000820151816000019060001916905560208201518160010160006101000a81548173ffffffffffffffffffffffffffffffffffffffff021916908373ffffffffffffffffffffffffffffffffffffffff16021790555060408201518160010160146101000a81548160ff0219169083151502179055506060820151816002015550500390503073ffffffffffffffffffffffffffffffffffffffff163373ffffffffffffffffffffffffffffffffffffffff167f6348efc17aa9a376d4c00dd43281f630971efcb7bb4470626c59f2442265f0518342604051808381526020018281526020019250505060405180910390a3505050565b600554600860009054906101000a900473ffffffffffffffffffffffffffffffffffffffff1673ffffffffffffffffffffffffffffffffffffffff166370a08231306040518263ffffffff167c0100000000000000000000000000000000000000000000000000000000028152600401808273ffffffffffffffffffffffffffffffffffffffff1673ffffffffffffffffffffffffffffffffffffffff168152602001915050602060405180830381600087803b158015610ed057600080fd5b505af1158015610ee4573d6000803e3d6000fd5b505050506040513d6020811015610efa57600080fd5b810190808051906020019092919050505010151515610f81576040517f08c379a000000000000000000000000000000000000000000000000000000000815260040180806020018281038252601b8152602001807f436f6e7472616374206e6f7420656e6f7567682062616c616e6365000000000081525060200191505060405180910390fd5b3373ffffffffffffffffffffffffffffffffffffffff16600260009054906101000a900473ffffffffffffffffffffffffffffffffffffffff1673ffffffffffffffffffffffffffffffffffffffff16141515611046576040517f08c379a000000000000000000000000000000000000000000000000000000000815260040180806020018281038252600c8152602001807f556e617574686f72697a6564000000000000000000000000000000000000000081525060200191505060405180910390fd5b6000600281111561105357fe5b600660009054906101000a900460ff16600281111561106e57fe5b14151561107a57600080fd5b600160078281548110151561108b57fe5b906000526020600020906003020160010160146101000a81548160ff021916908315150217905550600860009054906101000a900473ffffffffffffffffffffffffffffffffffffffff1673ffffffffffffffffffffffffffffffffffffffff1663a9059cbb60078381548110151561110057fe5b906000526020600020906003020160010160009054906101000a900473ffffffffffffffffffffffffffffffffffffffff166005546040518363ffffffff167c0100000000000000000000000000000000000000000000000000000000028152600401808373ffffffffffffffffffffffffffffffffffffffff1673ffffffffffffffffffffffffffffffffffffffff16815260200182815260200192505050602060405180830381600087803b1580156111ba57600080fd5b505af11580156111ce573d6000803e3d6000fd5b505050506040513d60208110156111e457600080fd5b8101908080519060200190929190505050151561120057600080fd5b3073ffffffffffffffffffffffffffffffffffffffff1660078281548110151561122657fe5b906000526020600020906003020160010160009054906101000a900473ffffffffffffffffffffffffffffffffffffffff1673ffffffffffffffffffffffffffffffffffffffff167f520645eadd1d6b2da3a6a053c0fd70b364f5cd120432bba23c33870532413f98836005544260405180848152602001838152602001828152602001935050505060405180910390a350565b3373ffffffffffffffffffffffffffffffffffffffff16600260009054906101000a900473ffffffffffffffffffffffffffffffffffffffff1673ffffffffffffffffffffffffffffffffffffffff1614151561137f576040517f08c379a000000000000000000000000000000000000000000000000000000000815260040180806020018281038252600c8152602001807f556e617574686f72697a6564000000000000000000000000000000000000000081525060200191505060405180910390fd5b6000600281111561138c57fe5b600660009054906101000a900460ff1660028111156113a757fe5b1415156113b357600080fd5b6002600660006101000a81548160ff021916908360028111156113d257fe5b0217905550600860009054906101000a900473ffffffffffffffffffffffffffffffffffffffff1673ffffffffffffffffffffffffffffffffffffffff1663a9059cbb600260009054906101000a900473ffffffffffffffffffffffffffffffffffffffff16600860009054906101000a900473ffffffffffffffffffffffffffffffffffffffff1673ffffffffffffffffffffffffffffffffffffffff166370a08231306040518263ffffffff167c0100000000000000000000000000000000000000000000000000000000028152600401808273ffffffffffffffffffffffffffffffffffffffff1673ffffffffffffffffffffffffffffffffffffffff168152602001915050602060405180830381600087803b1580156114f557600080fd5b505af1158015611509573d6000803e3d6000fd5b505050506040513d602081101561151f57600080fd5b81019080805190602001909291905050506040518363ffffffff167c0100000000000000000000000000000000000000000000000000000000028152600401808373ffffffffffffffffffffffffffffffffffffffff1673ffffffffffffffffffffffffffffffffffffffff16815260200182815260200192505050602060405180830381600087803b1580156115b557600080fd5b505af11580156115c9573d6000803e3d6000fd5b505050506040513d60208110156115df57600080fd5b810190808051906020019092919050505015156115fb57600080fd5b3073ffffffffffffffffffffffffffffffffffffffff163373ffffffffffffffffffffffffffffffffffffffff167fd0e8331ae08f5a0e3623ccc9c2eda24d74aa6ab37b8d68f4d8c82d316ecf8bda426040518082815260200191505060405180910390a3565b6000809054906101000a900473ffffffffffffffffffffffffffffffffffffffff1681565b846001816000191690555083600260006101000a81548173ffffffffffffffffffffffffffffffffffffffff021916908373ffffffffffffffffffffffffffffffffffffffff1602179055504260038190555082600481905550816005819055506000600660006101000a81548160ff0219169083600281111561170757fe5b021790555080600860006101000a81548173ffffffffffffffffffffffffffffffffffffffff021916908373ffffffffffffffffffffffffffffffffffffffff1602179055505050505050565b6000806000806000806000600154600260009054906101000a900473ffffffffffffffffffffffffffffffffffffffff16600354600454600554600660009054906101000a900460ff16600860009054906101000a900473ffffffffffffffffffffffffffffffffffffffff16965096509650965096509650965090919293949596565b6000806000806007858154811015156117ed57fe5b90600052602060002090600302016000015460078681548110151561180e57fe5b906000526020600020906003020160010160009054906101000a900473ffffffffffffffffffffffffffffffffffffffff1660078781548110151561184f57fe5b906000526020600020906003020160010160149054906101000a900460ff1660078881548110151561187d57fe5b90600052602060002090600302016002015493509350935093509193509193565b60806040519081016040528060008019168152602001600073ffffffffffffffffffffffffffffffffffffffff1681526020016000151581526020016000815250905600a165627a7a723058208a46e54a17c7a38b4db71e61a7284c075cd39bbde4d152d4ccf3bd1add441bd60029",
  "source": "pragma solidity ^0.4.23;\r\n\r\nimport {ERC20} from '../Token.sol';\r\n\r\ncontract RecurringBountyContract {\r\n  //address public owner;\r\n  address public imp; //match proxy storage\r\n  bytes32 reference;\r\n  address issuer;\r\n  uint timestamp;\r\n  uint deadline;\r\n  uint reward;\r\n  statusOptions status;\r\n  Commit[] commits;\r\n  address token;\r\n\r\n  event logRecurringStartWork(address indexed _by, address indexed _bounty, uint _timestamp);\r\n  event logRecurringCommit(address indexed _by, address indexed _bounty, uint _id, uint _timestamp);\r\n  event logRecurringAccepted(address indexed _winner, address indexed _bounty, uint _id, uint _amount, uint _timestamp);\r\n  event logRecurringCancelled(address indexed _by, address indexed _bounty, uint _timestamp);\r\n\r\n  enum statusOptions {ACTIVE, COMPLETED, ABANDONED}\r\n\r\n  struct Commit {\r\n    bytes32 reference;\r\n    address author;\r\n    bool accepted;\r\n    uint timestamp;\r\n  }\r\n\r\n  function createBounty(\r\n    bytes32 _reference,\r\n    address _issuer,\r\n    uint _deadline,\r\n    uint _reward,\r\n    address _token) external {\r\n      reference = _reference;\r\n      issuer = _issuer;\r\n      timestamp = now;\r\n      deadline = _deadline;\r\n      reward = _reward;\r\n      status = statusOptions.ACTIVE;\r\n      token = _token;\r\n    }\r\n\r\n  function getBounty() external view\r\n    returns (\r\n      bytes32,\r\n      address,\r\n      uint,\r\n      uint,\r\n      uint,\r\n      statusOptions,\r\n      address\r\n      ) {\r\n          return (\r\n          reference,\r\n          issuer,\r\n          timestamp,\r\n          deadline,\r\n          reward,\r\n          status,\r\n          token\r\n          );\r\n    }\r\n\r\n  function startWork() external {\r\n      require(status == statusOptions.ACTIVE);\r\n      require(ERC20(token).balanceOf(address(this)) >= reward, \"Contract not enough  balance\");\r\n      emit logRecurringStartWork(msg.sender, address(this), now);\r\n  }\r\n\r\n  function getCommits() external view returns (uint) {\r\n    return commits.length;\r\n  }\r\n\r\n  function cancelBounty() external {\r\n    require(issuer == msg.sender, \"Unauthorized\");\r\n    require(status == statusOptions.ACTIVE);\r\n    status = statusOptions.ABANDONED;\r\n    if(!ERC20(token).transfer(issuer, ERC20(token).balanceOf(address(this)) )) revert();\r\n    emit logRecurringCancelled(msg.sender, address(this), now);\r\n  }\r\n\r\n  function submitCommit(bytes32 _reference) external {\r\n    require(ERC20(token).balanceOf(address(this)) >= reward, \"Contract not enough balance\");\r\n    require(issuer != msg.sender, \"Unauthorized\"); //DISABLE FOR TESTING PURPOSES ONLY\r\n    require(deadline > now);\r\n    require(status == statusOptions.ACTIVE);\r\n    Commit memory newCommit;\r\n    newCommit.reference = _reference;\r\n    newCommit.author = msg.sender;\r\n    newCommit.accepted = false;\r\n    newCommit.timestamp = now;\r\n    uint _id = commits.push(newCommit) -1;\r\n    emit logRecurringCommit(msg.sender, address(this), _id, now);\r\n  }\r\n\r\n  function getCommit(uint _id)\r\n    external\r\n    view\r\n    returns (\r\n      bytes32,\r\n      address,\r\n      bool,\r\n      uint\r\n    ) {\r\n    return (commits[_id].reference, commits[_id].author, commits[_id].accepted, commits[_id].timestamp);\r\n  }\r\n\r\n  function acceptCommit(uint _id) external {\r\n    require(ERC20(token).balanceOf(address(this)) >= reward, \"Contract not enough balance\");\r\n    require(issuer == msg.sender, \"Unauthorized\");\r\n    require(status == statusOptions.ACTIVE);\r\n    commits[_id].accepted = true;\r\n    if(!ERC20(token).transfer(commits[_id].author,  reward)) revert();\r\n    emit logRecurringAccepted(commits[_id].author, address(this), _id,  reward, now);\r\n  }\r\n\r\n  function withdraw(uint _amount, address _token) external {\r\n    require(issuer == msg.sender, \"Unauthorized\");\r\n    if (_token != address(0)) {\r\n      require(ERC20(token).balanceOf(address(this)) >= _amount, \"Contract not enough balance\");\r\n      if(!ERC20(token).transfer(issuer, _amount)) revert();\r\n    } else {\r\n      issuer.transfer(_amount);\r\n    }\r\n  }\r\n\r\n}\r\n",
  "sourcePath": "C:\\Users\\N.vergauwen\\desktop\\knuckles.eth\\contracts\\contracts\\recurring-bounties\\RecurringBountyContract.sol",
  "compiler": {
    "name": "solc",
    "version": "0.4.25+commit.59dbf8f1.Emscripten.clang"
  },
  "schemaVersion": "3.0.1",
  "updatedAt": "2019-02-25T11:54:43.015Z",
  "devdoc": {
    "methods": {}
  },
  "userdoc": {
    "methods": {}
  }
}