{
  "contractName": "UsersRegistry",
  "abi": [
    {
      "anonymous": false,
      "inputs": [
        {
          "indexed": false,
          "name": "_name",
          "type": "bytes32"
        },
        {
          "indexed": false,
          "name": "_address",
          "type": "address"
        },
        {
          "indexed": false,
          "name": "_profile",
          "type": "bytes32"
        }
      ],
      "name": "logRegister",
      "type": "event"
    },
    {
      "constant": false,
      "inputs": [
        {
          "name": "_name",
          "type": "bytes32"
        },
        {
          "name": "_profile",
          "type": "bytes32"
        }
      ],
      "name": "register",
      "outputs": [],
      "payable": false,
      "stateMutability": "nonpayable",
      "type": "function"
    },
    {
      "constant": false,
      "inputs": [
        {
          "name": "_newName",
          "type": "bytes32"
        },
        {
          "name": "_profile",
          "type": "bytes32"
        },
        {
          "name": "_oldName",
          "type": "bytes32"
        }
      ],
      "name": "update",
      "outputs": [],
      "payable": false,
      "stateMutability": "nonpayable",
      "type": "function"
    },
    {
      "constant": true,
      "inputs": [
        {
          "name": "_user",
          "type": "address"
        }
      ],
      "name": "get",
      "outputs": [
        {
          "name": "",
          "type": "bytes32"
        }
      ],
      "payable": false,
      "stateMutability": "view",
      "type": "function"
    },
    {
      "constant": true,
      "inputs": [
        {
          "name": "_name",
          "type": "bytes32"
        }
      ],
      "name": "ensLookup",
      "outputs": [
        {
          "name": "",
          "type": "address"
        }
      ],
      "payable": false,
      "stateMutability": "view",
      "type": "function"
    },
    {
      "constant": true,
      "inputs": [
        {
          "name": "_user",
          "type": "address"
        }
      ],
      "name": "isRegistered",
      "outputs": [
        {
          "name": "",
          "type": "bool"
        }
      ],
      "payable": false,
      "stateMutability": "view",
      "type": "function"
    },
    {
      "constant": true,
      "inputs": [],
      "name": "whoAmI",
      "outputs": [
        {
          "name": "",
          "type": "address"
        }
      ],
      "payable": false,
      "stateMutability": "view",
      "type": "function"
    }
  ],
  "bytecode": "0x608060405234801561001057600080fd5b506105f9806100206000396000f300608060405260043610610078576000357c0100000000000000000000000000000000000000000000000000000000900463ffffffff1680632f9267321461007d578063627094e4146100bc5780639c0d25251461012d578063c2bc2efc1461017a578063c3c5a547146101d9578063da91254c14610234575b600080fd5b34801561008957600080fd5b506100ba6004803603810190808035600019169060200190929190803560001916906020019092919050505061028b565b005b3480156100c857600080fd5b506100eb60048036038101908080356000191690602001909291905050506103c8565b604051808273ffffffffffffffffffffffffffffffffffffffff1673ffffffffffffffffffffffffffffffffffffffff16815260200191505060405180910390f35b34801561013957600080fd5b5061017860048036038101908080356000191690602001909291908035600019169060200190929190803560001916906020019092919050505061040d565b005b34801561018657600080fd5b506101bb600480360381019080803573ffffffffffffffffffffffffffffffffffffffff169060200190929190505050610517565b60405180826000191660001916815260200191505060405180910390f35b3480156101e557600080fd5b5061021a600480360381019080803573ffffffffffffffffffffffffffffffffffffffff16906020019092919050505061055f565b604051808215151515815260200191505060405180910390f35b34801561024057600080fd5b506102496105c5565b604051808273ffffffffffffffffffffffffffffffffffffffff1673ffffffffffffffffffffffffffffffffffffffff16815260200191505060405180910390f35b6102943361055f565b1515156102a057600080fd5b806000803373ffffffffffffffffffffffffffffffffffffffff1673ffffffffffffffffffffffffffffffffffffffff16815260200190815260200160002081600019169055503360016000846000191660001916815260200190815260200160002060006101000a81548173ffffffffffffffffffffffffffffffffffffffff021916908373ffffffffffffffffffffffffffffffffffffffff1602179055507f265060e6ac2e818d5c677c6312d32f0b4e25e151edec836f5f835c5fe26902028233836040518084600019166000191681526020018373ffffffffffffffffffffffffffffffffffffffff1673ffffffffffffffffffffffffffffffffffffffff1681526020018260001916600019168152602001935050505060405180910390a15050565b600060016000836000191660001916815260200190815260200160002060009054906101000a900473ffffffffffffffffffffffffffffffffffffffff169050919050565b6104163361055f565b151561042157600080fd5b816000803373ffffffffffffffffffffffffffffffffffffffff1673ffffffffffffffffffffffffffffffffffffffff168152602001908152602001600020816000191690555080600019168360001916141515610512573360016000856000191660001916815260200190815260200160002060006101000a81548173ffffffffffffffffffffffffffffffffffffffff021916908373ffffffffffffffffffffffffffffffffffffffff16021790555060016000826000191660001916815260200190815260200160002060006101000a81549073ffffffffffffffffffffffffffffffffffffffff02191690555b505050565b60008060008373ffffffffffffffffffffffffffffffffffffffff1673ffffffffffffffffffffffffffffffffffffffff168152602001908152602001600020549050919050565b600080600102600019166000808473ffffffffffffffffffffffffffffffffffffffff1673ffffffffffffffffffffffffffffffffffffffff168152602001908152602001600020546000191614156105bb57600090506105c0565b600190505b919050565b6000339050905600a165627a7a72305820c7748b09938c60739f1edd5be32e7b5f67f188c1b578ff7f76695916873adcf90029",
  "source": "pragma solidity ^0.4.23;\r\n\r\ncontract UsersRegistry {\r\n\r\n  mapping (address => bytes32) users;\r\n  mapping (bytes32 => address) ens;\r\n\r\n  event logRegister(bytes32 _name, address _address, bytes32 _profile);\r\n\r\n  function register(bytes32 _name, bytes32 _profile) external {\r\n    require(!isRegistered(msg.sender));\r\n    users[msg.sender] = _profile;\r\n    ens[_name] = msg.sender;\r\n    emit logRegister(_name, msg.sender, _profile);\r\n  }\r\n\r\n  function update(bytes32 _newName, bytes32 _profile, bytes32 _oldName) external {\r\n    require(isRegistered(msg.sender));\r\n    users[msg.sender] = _profile;\r\n    if (_newName != _oldName) {\r\n      ens[_newName] = msg.sender;\r\n      delete ens[_oldName];\r\n    }\r\n  }\r\n\r\n  function get(address _user) external view returns (bytes32) {\r\n    return users[_user];\r\n  }\r\n\r\n  function ensLookup(bytes32 _name) external view returns (address) {\r\n    return ens[_name];\r\n  }\r\n\r\n  function isRegistered(address _user) public view returns (bool) {\r\n    if (users[_user] == bytes32(0)) {\r\n      return false;\r\n    } else {\r\n      return true;\r\n    }\r\n  }\r\n\r\n  function whoAmI() public view returns (address) {\r\n    return msg.sender;\r\n  }\r\n}\r\n",
  "sourcePath": "C:\\Users\\Nico\\Desktop\\knuckles.eth\\contracts\\contracts\\UsersRegistry.sol",
  "compiler": {
    "name": "solc",
    "version": "0.4.25+commit.59dbf8f1.Emscripten.clang"
  },
  "schemaVersion": "3.0.5",
  "updatedAt": "2019-04-02T20:29:55.769Z",
  "devdoc": {
    "methods": {}
  },
  "userdoc": {
    "methods": {}
  }
}