{
  "contractName": "BurnableToken",
  "abi": [
    {
      "constant": false,
      "inputs": [
        {
          "name": "_spender",
          "type": "address"
        },
        {
          "name": "_value",
          "type": "uint256"
        }
      ],
      "name": "approve",
      "outputs": [
        {
          "name": "",
          "type": "bool"
        }
      ],
      "payable": false,
      "stateMutability": "nonpayable",
      "type": "function"
    },
    {
      "constant": true,
      "inputs": [],
      "name": "totalSupply",
      "outputs": [
        {
          "name": "",
          "type": "uint256"
        }
      ],
      "payable": false,
      "stateMutability": "view",
      "type": "function"
    },
    {
      "constant": false,
      "inputs": [
        {
          "name": "_from",
          "type": "address"
        },
        {
          "name": "_to",
          "type": "address"
        },
        {
          "name": "_value",
          "type": "uint256"
        }
      ],
      "name": "transferFrom",
      "outputs": [
        {
          "name": "",
          "type": "bool"
        }
      ],
      "payable": false,
      "stateMutability": "nonpayable",
      "type": "function"
    },
    {
      "constant": false,
      "inputs": [
        {
          "name": "_spender",
          "type": "address"
        },
        {
          "name": "_subtractedValue",
          "type": "uint256"
        }
      ],
      "name": "decreaseApproval",
      "outputs": [
        {
          "name": "",
          "type": "bool"
        }
      ],
      "payable": false,
      "stateMutability": "nonpayable",
      "type": "function"
    },
    {
      "constant": true,
      "inputs": [
        {
          "name": "_owner",
          "type": "address"
        }
      ],
      "name": "balanceOf",
      "outputs": [
        {
          "name": "balance",
          "type": "uint256"
        }
      ],
      "payable": false,
      "stateMutability": "view",
      "type": "function"
    },
    {
      "constant": false,
      "inputs": [
        {
          "name": "_to",
          "type": "address"
        },
        {
          "name": "_value",
          "type": "uint256"
        }
      ],
      "name": "transfer",
      "outputs": [
        {
          "name": "",
          "type": "bool"
        }
      ],
      "payable": false,
      "stateMutability": "nonpayable",
      "type": "function"
    },
    {
      "constant": false,
      "inputs": [
        {
          "name": "_spender",
          "type": "address"
        },
        {
          "name": "_addedValue",
          "type": "uint256"
        }
      ],
      "name": "increaseApproval",
      "outputs": [
        {
          "name": "",
          "type": "bool"
        }
      ],
      "payable": false,
      "stateMutability": "nonpayable",
      "type": "function"
    },
    {
      "constant": true,
      "inputs": [
        {
          "name": "_owner",
          "type": "address"
        },
        {
          "name": "_spender",
          "type": "address"
        }
      ],
      "name": "allowance",
      "outputs": [
        {
          "name": "",
          "type": "uint256"
        }
      ],
      "payable": false,
      "stateMutability": "view",
      "type": "function"
    },
    {
      "anonymous": false,
      "inputs": [
        {
          "indexed": true,
          "name": "owner",
          "type": "address"
        },
        {
          "indexed": true,
          "name": "spender",
          "type": "address"
        },
        {
          "indexed": false,
          "name": "value",
          "type": "uint256"
        }
      ],
      "name": "Approval",
      "type": "event"
    },
    {
      "anonymous": false,
      "inputs": [
        {
          "indexed": true,
          "name": "from",
          "type": "address"
        },
        {
          "indexed": true,
          "name": "to",
          "type": "address"
        },
        {
          "indexed": false,
          "name": "value",
          "type": "uint256"
        }
      ],
      "name": "Transfer",
      "type": "event"
    },
    {
      "constant": false,
      "inputs": [
        {
          "name": "_value",
          "type": "uint256"
        }
      ],
      "name": "burn",
      "outputs": [],
      "payable": false,
      "stateMutability": "nonpayable",
      "type": "function"
    }
  ],
  "bytecode": "0x608060405234801561001057600080fd5b50611241806100206000396000f300608060405260043610610099576000357c0100000000000000000000000000000000000000000000000000000000900463ffffffff168063095ea7b31461009e57806318160ddd1461010357806323b872dd1461012e57806342966c68146101b357806366188463146101e057806370a0823114610245578063a9059cbb1461029c578063d73dd62314610301578063dd62ed3e14610366575b600080fd5b3480156100aa57600080fd5b506100e9600480360381019080803573ffffffffffffffffffffffffffffffffffffffff169060200190929190803590602001909291905050506103dd565b604051808215151515815260200191505060405180910390f35b34801561010f57600080fd5b506101186104cf565b6040518082815260200191505060405180910390f35b34801561013a57600080fd5b50610199600480360381019080803573ffffffffffffffffffffffffffffffffffffffff169060200190929190803573ffffffffffffffffffffffffffffffffffffffff169060200190929190803590602001909291905050506104d9565b604051808215151515815260200191505060405180910390f35b3480156101bf57600080fd5b506101de60048036038101908080359060200190929190505050610893565b005b3480156101ec57600080fd5b5061022b600480360381019080803573ffffffffffffffffffffffffffffffffffffffff16906020019092919080359060200190929190505050610991565b604051808215151515815260200191505060405180910390f35b34801561025157600080fd5b50610286600480360381019080803573ffffffffffffffffffffffffffffffffffffffff169060200190929190505050610c22565b6040518082815260200191505060405180910390f35b3480156102a857600080fd5b506102e7600480360381019080803573ffffffffffffffffffffffffffffffffffffffff16906020019092919080359060200190929190505050610c6a565b604051808215151515815260200191505060405180910390f35b34801561030d57600080fd5b5061034c600480360381019080803573ffffffffffffffffffffffffffffffffffffffff16906020019092919080359060200190929190505050610f5b565b604051808215151515815260200191505060405180910390f35b34801561037257600080fd5b506103c7600480360381019080803573ffffffffffffffffffffffffffffffffffffffff169060200190929190803573ffffffffffffffffffffffffffffffffffffffff169060200190929190505050611157565b6040518082815260200191505060405180910390f35b600081600160003373ffffffffffffffffffffffffffffffffffffffff1673ffffffffffffffffffffffffffffffffffffffff16815260200190815260200160002060008573ffffffffffffffffffffffffffffffffffffffff1673ffffffffffffffffffffffffffffffffffffffff168152602001908152602001600020819055508273ffffffffffffffffffffffffffffffffffffffff163373ffffffffffffffffffffffffffffffffffffffff167f8c5be1e5ebec7d5bd14f71427d1e84f3dd0314c0f7b2291e5b200ac8c7c3b925846040518082815260200191505060405180910390a36001905092915050565b6000600254905090565b60008073ffffffffffffffffffffffffffffffffffffffff168373ffffffffffffffffffffffffffffffffffffffff161415151561051657600080fd5b6000808573ffffffffffffffffffffffffffffffffffffffff1673ffffffffffffffffffffffffffffffffffffffff16815260200190815260200160002054821115151561056357600080fd5b600160008573ffffffffffffffffffffffffffffffffffffffff1673ffffffffffffffffffffffffffffffffffffffff16815260200190815260200160002060003373ffffffffffffffffffffffffffffffffffffffff1673ffffffffffffffffffffffffffffffffffffffff1681526020019081526020016000205482111515156105ee57600080fd5b61063f826000808773ffffffffffffffffffffffffffffffffffffffff1673ffffffffffffffffffffffffffffffffffffffff168152602001908152602001600020546111de90919063ffffffff16565b6000808673ffffffffffffffffffffffffffffffffffffffff1673ffffffffffffffffffffffffffffffffffffffff168152602001908152602001600020819055506106d2826000808673ffffffffffffffffffffffffffffffffffffffff1673ffffffffffffffffffffffffffffffffffffffff168152602001908152602001600020546111f790919063ffffffff16565b6000808573ffffffffffffffffffffffffffffffffffffffff1673ffffffffffffffffffffffffffffffffffffffff168152602001908152602001600020819055506107a382600160008773ffffffffffffffffffffffffffffffffffffffff1673ffffffffffffffffffffffffffffffffffffffff16815260200190815260200160002060003373ffffffffffffffffffffffffffffffffffffffff1673ffffffffffffffffffffffffffffffffffffffff168152602001908152602001600020546111de90919063ffffffff16565b600160008673ffffffffffffffffffffffffffffffffffffffff1673ffffffffffffffffffffffffffffffffffffffff16815260200190815260200160002060003373ffffffffffffffffffffffffffffffffffffffff1673ffffffffffffffffffffffffffffffffffffffff168152602001908152602001600020819055508273ffffffffffffffffffffffffffffffffffffffff168473ffffffffffffffffffffffffffffffffffffffff167fddf252ad1be2c89b69c2b068fc378daa952ba7f163c4a11628f55a4df523b3ef846040518082815260200191505060405180910390a3600190509392505050565b6000803373ffffffffffffffffffffffffffffffffffffffff1673ffffffffffffffffffffffffffffffffffffffff1681526020019081526020016000205481111515156108e057600080fd5b610931816000803373ffffffffffffffffffffffffffffffffffffffff1673ffffffffffffffffffffffffffffffffffffffff168152602001908152602001600020546111de90919063ffffffff16565b6000803373ffffffffffffffffffffffffffffffffffffffff1673ffffffffffffffffffffffffffffffffffffffff16815260200190815260200160002081905550610988816002546111de90919063ffffffff16565b60028190555050565b600080600160003373ffffffffffffffffffffffffffffffffffffffff1673ffffffffffffffffffffffffffffffffffffffff16815260200190815260200160002060008573ffffffffffffffffffffffffffffffffffffffff1673ffffffffffffffffffffffffffffffffffffffff16815260200190815260200160002054905080831115610aa2576000600160003373ffffffffffffffffffffffffffffffffffffffff1673ffffffffffffffffffffffffffffffffffffffff16815260200190815260200160002060008673ffffffffffffffffffffffffffffffffffffffff1673ffffffffffffffffffffffffffffffffffffffff16815260200190815260200160002081905550610b36565b610ab583826111de90919063ffffffff16565b600160003373ffffffffffffffffffffffffffffffffffffffff1673ffffffffffffffffffffffffffffffffffffffff16815260200190815260200160002060008673ffffffffffffffffffffffffffffffffffffffff1673ffffffffffffffffffffffffffffffffffffffff168152602001908152602001600020819055505b8373ffffffffffffffffffffffffffffffffffffffff163373ffffffffffffffffffffffffffffffffffffffff167f8c5be1e5ebec7d5bd14f71427d1e84f3dd0314c0f7b2291e5b200ac8c7c3b925600160003373ffffffffffffffffffffffffffffffffffffffff1673ffffffffffffffffffffffffffffffffffffffff16815260200190815260200160002060008873ffffffffffffffffffffffffffffffffffffffff1673ffffffffffffffffffffffffffffffffffffffff168152602001908152602001600020546040518082815260200191505060405180910390a3600191505092915050565b60008060008373ffffffffffffffffffffffffffffffffffffffff1673ffffffffffffffffffffffffffffffffffffffff168152602001908152602001600020549050919050565b60008073ffffffffffffffffffffffffffffffffffffffff168373ffffffffffffffffffffffffffffffffffffffff1614151515610d10576040517f08c379a00000000000000000000000000000000000000000000000000000000081526004018080602001828103825260118152602001807f414444524553535f4e494c5f56414c554500000000000000000000000000000081525060200191505060405180910390fd5b6000803373ffffffffffffffffffffffffffffffffffffffff1673ffffffffffffffffffffffffffffffffffffffff168152602001908152602001600020548211151515610dc6576040517f08c379a00000000000000000000000000000000000000000000000000000000081526004018080602001828103825260148152602001807f494e53554646494349454e545f42414c414e434500000000000000000000000081525060200191505060405180910390fd5b610e17826000803373ffffffffffffffffffffffffffffffffffffffff1673ffffffffffffffffffffffffffffffffffffffff168152602001908152602001600020546111de90919063ffffffff16565b6000803373ffffffffffffffffffffffffffffffffffffffff1673ffffffffffffffffffffffffffffffffffffffff16815260200190815260200160002081905550610eaa826000808673ffffffffffffffffffffffffffffffffffffffff1673ffffffffffffffffffffffffffffffffffffffff168152602001908152602001600020546111f790919063ffffffff16565b6000808573ffffffffffffffffffffffffffffffffffffffff1673ffffffffffffffffffffffffffffffffffffffff168152602001908152602001600020819055508273ffffffffffffffffffffffffffffffffffffffff163373ffffffffffffffffffffffffffffffffffffffff167fddf252ad1be2c89b69c2b068fc378daa952ba7f163c4a11628f55a4df523b3ef846040518082815260200191505060405180910390a36001905092915050565b6000610fec82600160003373ffffffffffffffffffffffffffffffffffffffff1673ffffffffffffffffffffffffffffffffffffffff16815260200190815260200160002060008673ffffffffffffffffffffffffffffffffffffffff1673ffffffffffffffffffffffffffffffffffffffff168152602001908152602001600020546111f790919063ffffffff16565b600160003373ffffffffffffffffffffffffffffffffffffffff1673ffffffffffffffffffffffffffffffffffffffff16815260200190815260200160002060008573ffffffffffffffffffffffffffffffffffffffff1673ffffffffffffffffffffffffffffffffffffffff168152602001908152602001600020819055508273ffffffffffffffffffffffffffffffffffffffff163373ffffffffffffffffffffffffffffffffffffffff167f8c5be1e5ebec7d5bd14f71427d1e84f3dd0314c0f7b2291e5b200ac8c7c3b925600160003373ffffffffffffffffffffffffffffffffffffffff1673ffffffffffffffffffffffffffffffffffffffff16815260200190815260200160002060008773ffffffffffffffffffffffffffffffffffffffff1673ffffffffffffffffffffffffffffffffffffffff168152602001908152602001600020546040518082815260200191505060405180910390a36001905092915050565b6000600160008473ffffffffffffffffffffffffffffffffffffffff1673ffffffffffffffffffffffffffffffffffffffff16815260200190815260200160002060008373ffffffffffffffffffffffffffffffffffffffff1673ffffffffffffffffffffffffffffffffffffffff16815260200190815260200160002054905092915050565b60008282111515156111ec57fe5b818303905092915050565b600080828401905083811015151561120b57fe5b80915050929150505600a165627a7a72305820eea6b1b53483a6febb91b6dbbcd80aa14408a736b539b315b3e24e465bdd9a8b0029",
  "source": "pragma solidity ^0.4.23;\r\n\r\nimport './util/SafeMath.sol';\r\nimport './util/Ownable.sol';\r\n\r\ninterface ERC20 {\r\n  function totalSupply() external view returns (uint256);\r\n  function balanceOf(address who) external view returns (uint256);\r\n  function transfer(address to, uint256 value) external returns (bool);\r\n  function allowance(address owner, address spender) external view returns (uint256);\r\n  function transferFrom(address from, address to, uint256 value) external returns (bool);\r\n  function approve(address spender, uint256 value) external returns (bool);\r\n  event Approval(address indexed owner, address indexed spender, uint256 value);\r\n  event Transfer(address indexed from, address indexed to, uint256 value);\r\n}\r\n\r\ncontract StandardToken is ERC20 {\r\n  using SafeMath for uint256;\r\n\r\n  mapping(address => uint256) balances;\r\n  mapping (address => mapping (address => uint256)) internal allowed;\r\n\r\n\r\n  uint256 totalSupply_;\r\n\r\n  function totalSupply() public view returns (uint256) {\r\n    return totalSupply_;\r\n  }\r\n\r\n  function balanceOf(address _owner) public view returns (uint256 balance) {\r\n    return balances[_owner];\r\n  }\r\n\r\n  function transfer(address _to, uint256 _value) public returns (bool) {\r\n    require(_to != address(0), \"ADDRESS_NIL_VALUE\");\r\n    require(_value <= balances[msg.sender], \"INSUFFICIENT_BALANCE\");\r\n    balances[msg.sender] = balances[msg.sender].sub(_value);\r\n    balances[_to] = balances[_to].add(_value);\r\n    emit Transfer(msg.sender, _to, _value);\r\n    return true;\r\n  }\r\n  /**\r\n  * @dev Transfer tokens from one address to another\r\n  * @param _from address The address which you want to send tokens from\r\n  * @param _to address The address which you want to transfer to\r\n  * @param _value uint256 the amount of tokens to be transferred\r\n  */\r\n  function transferFrom(\r\n    address _from,\r\n    address _to,\r\n    uint256 _value\r\n  )\r\n    public\r\n    returns (bool)\r\n  {\r\n    require(_to != address(0));\r\n    require(_value <= balances[_from]);\r\n    require(_value <= allowed[_from][msg.sender]);\r\n\r\n    balances[_from] = balances[_from].sub(_value);\r\n    balances[_to] = balances[_to].add(_value);\r\n    allowed[_from][msg.sender] = allowed[_from][msg.sender].sub(_value);\r\n    emit Transfer(_from, _to, _value);\r\n    return true;\r\n  }\r\n\r\n /**\r\n  * @dev Approve the passed address to spend the specified amount of tokens on behalf of msg.sender.\r\n  *\r\n  * Beware that changing an allowance with this method brings the risk that someone may use both the old\r\n  * and the new allowance by unfortunate transaction ordering. One possible solution to mitigate this\r\n  * race condition is to first reduce the spender's allowance to 0 and set the desired value afterwards:\r\n  * https://github.com/ethereum/EIPs/issues/20#issuecomment-263524729\r\n  * @param _spender The address which will spend the funds.\r\n  * @param _value The amount of tokens to be spent.\r\n  */\r\n function approve(address _spender, uint256 _value) public returns (bool) {\r\n   allowed[msg.sender][_spender] = _value;\r\n   emit Approval(msg.sender, _spender, _value);\r\n   return true;\r\n }\r\n\r\n /**\r\n  * @dev Function to check the amount of tokens that an owner allowed to a spender.\r\n  * @param _owner address The address which owns the funds.\r\n  * @param _spender address The address which will spend the funds.\r\n  * @return A uint256 specifying the amount of tokens still available for the spender.\r\n  */\r\n function allowance(address _owner, address _spender) public view returns (uint256) {\r\n   return allowed[_owner][_spender];\r\n }\r\n\r\n /**\r\n  * @dev Increase the amount of tokens that an owner allowed to a spender.\r\n  *\r\n  * approve should be called when allowed[_spender] == 0. To increment\r\n  * allowed value is better to use this function to avoid 2 calls (and wait until\r\n  * the first transaction is mined)\r\n  * From MonolithDAO Token.sol\r\n  * @param _spender The address which will spend the funds.\r\n  * @param _addedValue The amount of tokens to increase the allowance by.\r\n  */\r\n function increaseApproval(address _spender, uint _addedValue) public returns (bool) {\r\n   allowed[msg.sender][_spender] = allowed[msg.sender][_spender].add(_addedValue);\r\n   emit Approval(msg.sender, _spender, allowed[msg.sender][_spender]);\r\n   return true;\r\n }\r\n\r\n /**\r\n  * @dev Decrease the amount of tokens that an owner allowed to a spender.\r\n  *\r\n  * approve should be called when allowed[_spender] == 0. To decrement\r\n  * allowed value is better to use this function to avoid 2 calls (and wait until\r\n  * the first transaction is mined)\r\n  * From MonolithDAO Token.sol\r\n  * @param _spender The address which will spend the funds.\r\n  * @param _subtractedValue The amount of tokens to decrease the allowance by.\r\n  */\r\n function decreaseApproval(address _spender, uint _subtractedValue) public returns (bool) {\r\n   uint oldValue = allowed[msg.sender][_spender];\r\n   if (_subtractedValue > oldValue) {\r\n     allowed[msg.sender][_spender] = 0;\r\n   } else {\r\n     allowed[msg.sender][_spender] = oldValue.sub(_subtractedValue);\r\n   }\r\n   emit Approval(msg.sender, _spender, allowed[msg.sender][_spender]);\r\n   return true;\r\n }\r\n\r\n}\r\n\r\ncontract BurnableToken is StandardToken {\r\n  function burn(uint _value) external {\r\n     require(_value <= balances[msg.sender]);\r\n    balances[msg.sender] = balances[msg.sender].sub(_value);\r\n    totalSupply_ = totalSupply_.sub(_value);\r\n  }\r\n}\r\ncontract MintableToken is BurnableToken, Ownable {\r\n  event Mint(address indexed to, uint256 amount);\r\n  event MintFinished();\r\n\r\n  bool public mintingFinished = false;\r\n\r\n  modifier canMint() {\r\n    require(!mintingFinished);\r\n    _;\r\n  }\r\n\r\n  function mint(address _to, uint256 _amount) onlyOwner canMint public returns (bool) {\r\n    totalSupply_ = totalSupply_.add(_amount);\r\n    balances[_to] = balances[_to].add(_amount);\r\n    emit Mint(_to, _amount);\r\n    emit Transfer(address(0), _to, _amount);\r\n    return true;\r\n  }\r\n\r\n  function finishMinting() onlyOwner canMint public returns (bool) {\r\n    mintingFinished = true;\r\n    emit MintFinished();\r\n    return true;\r\n  }\r\n}\r\n\r\ncontract Token is MintableToken {\r\n  string public name;\r\n  string public symbol;\r\n  uint8 public decimals;\r\n\r\n  constructor (string _name, string _symbol, uint8 _decimals) public {\r\n    name = _name;\r\n    symbol = _symbol;\r\n    decimals = _decimals;\r\n  }\r\n}\r\n",
  "sourcePath": "C:\\Users\\N.vergauwen\\Desktop\\knuckles-web\\contracts\\contracts\\Token.sol",
  "compiler": {
    "name": "solc",
    "version": "0.4.25+commit.59dbf8f1.Emscripten.clang"
  },
  "schemaVersion": "2.0.2",
  "updatedAt": "2019-01-17T17:26:27.256Z"
}